:020000040000FA
:060000000209C00201BB71
:03002B000207FBCE
:030033000205C300
:030053000200ECBC
:03006B0002059DEE
:100083000201500101FF01010503010F10FEFF6290
:10009300126212621262121811121162123B1E00D6
:1000A300000000FF1E000000000C0000000C000117
:1000B300FFFF010101003E05000000B305E80364F2
:1000C300006400B801020200080000050207051ED3
:1000D30002051E020A0A03B80B02803E0102FFFF5B
:1000E300011496511800020206C0E074F212036470
:1000F300A2AFE433FED2AFE5A7FFE5A1F5085F5455
:1001030010600612190A75A1EFE5085F540860082C
:1001130012191075A1F7802BEFA2E0C0D0E508A259
:10012300E092F0120910158182F05017906198E067
:10013300F890065BE0C398A2D265D0335002E8F092
:1001430075A1FEEEA2E092AF7F0102041BC0E07432
:10015300F2120364A2AFE433FED2AF9061A4E0F8DD
:10016300759B00E59158540860087591F71219586A
:10017300802AE59158541060087591EF12195E803A
:100183001BE8A2E0C0D0E591A2E092F0120910159D
:100193008182F05007E0C2E0F0121AA29061A3E05E
:1001A300F8E5E9585404600E121A7875E9FB90617A
:1001B30093E0A2E640F2808BC0E074F2120364A2E3
:1001C300AFE433FED2AF9061A5E0F8E5BF58540425
:1001D300600675BFFB121ABA020146C3E498F8E43D
:1001E30099F912021F8026C3E49AFAE49BFBE920E3
:1001F300E7E912021FE498F8E499F922C3E498F8B6
:10020300E499F912021FE498F8E499F9C3E49AFA1D
:10021300E49BFB22EB20E7CFE920E7E0B90010BB2A
:100223000008E88AF084F8AAF022E4FBC8FA22EB7B
:1002330070227B10C833C8C933C9335007C39AC36C
:10024300DBF280069A50012ADBEAC833F4C8C933CB
:10025300F4C9FA2275F008E4C833C8C933C933C9ED
:100263009AC99B5004C92AC93BD5F0ECFBC833F4A7
:10027300C8E4C9FA22080808EAC0E0EBC0E086F047
:10028300E7A4FA180986F0E7A42AFA180986F0E722
:10029300A42AFA180986F0E7A42AFA1986F0E7A433
:1002A300FBE5F02AFA190886F0E7A42BFBE5F03A00
:1002B300FA190886F0E7A42BFBE5F03AFA181809B7
:1002C30086F0E7A4C5F02BFBE43AFA1908E7C5F07A
:1002D300C6A426F6E5F03BFBE43AFA1886F0E7A459
:1002E300F6E5F00826F6E43B08F6E43A08F6D0E033
:1002F300FBD0E0FA222518C582C0E0E51934FFC51A
:1003030083C0E0E518C3958224F810AF08858319EC
:100313008582188008858319858218D2AFCEF0A311
:10032300E520F0A37808E608F0A3DEFAEFF0A3E5F2
:100333008124FAF8E608F0A3E608F0A3E608F0A3A0
:100343000808E608F0A3E608F0A315811581D0E0BC
:10035300FED0E0F8158115811581E8C0E0EEC0E01C
:1003630022C0D02518C582C0E0E51934FFC583C07B
:10037300E0E518C3958224F310AF088583198582BD
:10038300188008858319858218D2AFC8F0A3E9F0D5
:10039300A3EAF0A3EBF0A37908E709F0A3D8FAECFA
:1003A300F0A3EDF0A3EEF0A3EFF0A3D0E0F0A3D021
:1003B300E0F0A3D0E0F0A3E520F0A3E5F0F0A32262
:1003C300120A22B90003020405E49003017822799A
:1003D3000A8002F0A3D8FCD9FA900C22AA82AB833C
:1003E300900086786779018015E493A3AC82AD838E
:1003F3008A828B83F0A3AA82AB838C828D83D8E914
:10040300D9E77582B97583C774031207737582427E
:1004130075831D7400120773851983851882E0C0E4
:10042300E0A3E0F9A3E0FAA3E0FBA37808E0F60871
:10043300A3DFFAE0FCA3E0FDA3E0FEA3E0FFA3E05B
:10044300C0E0A3E0C0E0A3E0F5D0A3E0F520A3E083
:10045300A3F5F010AF08858319858218800885837A
:1004630019858218D2AFD082D083D0E0F8D0E032A1
:100473000975F0108E1A8F1B85821F85831E8518C0
:1004830082851983E0CEA3E0CF851F82851E83EB8F
:10049300C9EAC8EDCBECCAC3E833C8E933C9EA33C8
:1004A300CAEB33CBC3EA9EF51DEB9FF51CB3500497
:1004B300AB1CAA1DEC33CCED33CDD5F0DAAE1AAFBD
:1004C3001B22D083D082ECC0E0EDC0E0E493A3FC18
:1004D300E493A3FDED4C600D1205E1EC24FFFCED6C
:1004E30034FFFD80EFE493A3FCE493A3FDED4C60A4
:1004F3000D12067EEC24FFFCED34FFFD80EFD0E00F
:10050300FDD0E0FCE493A3C0E0E493C0E022D083F9
:10051300D082E9C0E0E493A3C386F0C5F095F0F977
:1005230008E493A386F0C5F095F0700BE493A3C39E
:10053300994005E9048002A3E475F002A42582F53D
:1005430082E5F03583F583D0E0F9E493A3C0E0E4DA
:1005530093C0E022851983851882E0A3FEE0A3F50A
:10056300207808E0A3F608DFFAE0A3FFE0A3C0E0E9
:10057300E0A3C0E0E0A3C0E0E0A3C0E0E0A3C0E0EC
:1005830010AF0885821885831980088582188583B2
:1005930019D2AFD083D082020779C0E074F212037C
:1005A30064A2AFE433FED2AFE589A2E1500312188F
:1005B30062758900C2C5EEA2E092AF7F0102041BFF
:1005C300C0E074F2120364A2AFE433FED2AFE58B52
:1005D300A2E05003121862758B00C2E880D8C0E015
:1005E300C3E49396087401939618400FE4936670DE
:1005F3000808740193661870007019A3A3C3E493E9
:1006030096087401939618A3A3400DD0E0D0E0D0D0
:10061300E0020501A3A3A3A3A3A3D0E02274048053
:100623000474028000CCC0E0EDC0E0E518C39CCCAC
:10063300AD1950011D10AF068C188D1980068C184A
:100643008D19D2AF1206F5D0E0FDD0E0FC22740282
:100653008000CCC0E0EDC0E0E518C39CCCAD1950E0
:10066300011D10AF068C188D1980068C188D19D2B8
:10067300AF1206D3D0E0FDD0E0FC22C0E0C0F0888A
:10068300F0E4936670080874019366187000A8F08C
:10069300A3A3700BD0F0D0E0D0E0D0E0020501A31B
:1006A300A3D0F0D0E022D083D082CCC0E0E493A3E7
:1006B30060061207161470FAE493A3600612085B2F
:1006C3001470FAD0E0FCE493A3C0E0E493C0E0220A
:1006D300CAC0E0E493A3C582CCC582C583CDC583DC
:1006E300F0A3C582CCC582C583CDC583DAE5D0E04E
:1006F300CA22CAC0E0E0A3C582CCC582C583CDC5EA
:1007030083F0A3C582CCC582C583CDC583DAE6D089
:10071300E0CA22C0E0E493A3D39C5010E493A3C3A4
:100723009C400AD0E0D0E0D0E00206C6A3A3A3D049
:10073300E022C008C3E096F50808A3E09642080843
:10074300A3E096420808A3E09645087001D3D008B9
:10075300227009080808226016181818C6C333C681
:1007630008C633C608C633C608C633C6D5E0EA2270
:10077300C09FF59FE473D09F22D083D082C09FE4B3
:1007830093C0E0740193C0E0740293F59F22740454
:10079300800A74038006740280027401C0E0F404CA
:1007A3001207ACD0E01209FD222518F58210AF081C
:1007B300F518400215198008F51840021519D2AF33
:1007C30085198322BB0102E722C082C08389828A02
:1007D30083BB0003E08002E493D083D08222C0D0A5
:1007E300251810AF08F518500205198008F51850A0
:1007F300020519D2AFD0D022C0E0C0D0E8C0E0E5F6
:10080300A8D2AFC2C7A2E792AFD0E0F8D0D0D0E071
:10081300326016080808C6C313C618C613C618C61E
:1008230013C618C613C6D5E0EA22C3E0C696F60877
:10083300A3E0C696F608A3E0C696F608A3E0C6961C
:10084300F622251810AF08F518400215198008F58F
:100853001840021519D2AF22C0E0E493A36C7009CB
:10086300D0E0D0E0D0E00206C6A3A3D0E022C3E0EC
:100873009608A3E09608A3E09608A3E096A2D265A3
:10088300D03322E066701008A3E066700A08A3E084
:1008930066700408A3E06622E76670100809E7663D
:1008A300700A0809E76670040809E76622C3E09640
:1008B300F008A3E096F008A3E096F008A3E096F012
:1008C30022E627F60809E637F60809E637F60809A7
:1008D300E637F622E026F608A3E036F608A3E0366C
:1008E300F608A3E036F622E026F008A3E036F00887
:1008F300A3E036F008A3E036F022E657F60809E64F
:1009030057F60809E657F60809E657F622C0E0E865
:10091300C0E0E58124FCF8E6A2E7D0E0F8D0E022CD
:10092300700422600D18C6C333C608C633C6D5E0AB
:10093300F41822E056F608A3E056F608A3E056F6AC
:1009430008A3E056F622E056F008A3E056F008A309
:10095300E056F008A3E056F022E647F60809E6471A
:10096300F60809E647F60809E647F622E4C396F6D1
:1009730008E496F608E496F608E496F622C3E796AA
:100983000809E7960809E7960809E79622C6F4C618
:1009930008C6F4C608C6F4C608C6F4C622600D0825
:1009A300C6A2E713C618C613C6D5E0F322C3E09662
:1009B30008A3E09608A3E09608A3E0962275D0006A
:1009C300758140751801751903000203C3E0F60829
:1009D300A3E0F608A3E0F608A3E0F622600C08C63D
:1009E300C313C618C613C6D5E0F422E6F008A3E67F
:1009F300F008A3E6F008A3E6F022CAC0E0E6F0A3FD
:100A030008DAFAD0E0FA22E0FAA3E0FBA3E0FCA3C1
:100A1300E0FD22EAF0A3EBF0A3ECF0A3EDF022E576
:100A2300C754F84401F5C77901222518F582E43546
:100A330019F58322C2AF75D69F0200002212077CEC
:100A4300D8E20212077C0CE40212077C2AE40212A9
:100A5300077C4E210012077C60210012077CB22123
:100A63000012077C13220012077C9D220012077CD0
:100A730041230012077C95230012077CAE2300124A
:100A8300077CD4230012077C0F240012077C532415
:100A93000012077C7A240012077CCB240012077C07
:100AA3007B250012077C33260012077CFB260012ED
:100AB300077CBB270012077CFF270012077C242832
:100AC3000012077C67280012077CB4280012077CF9
:100AD3000C2A0012077C922A0012077CB02A00120B
:100AE300077CDA2A0012077CF42A0012077C032B06
:100AF3000012077C0E2B0012077CCE2B0012077C02
:100B0300272C0012077CE92C0012077CF12C001221
:100B1300077CB52D0012077C212E0012077C4C2F79
:100B23000012077C5D2F0012077CD32F0012077C75
:100B330065300012077CBD300012077C7D31001246
:100B4300077CA4310012077CB6310012077C0932FE
:100B53000012077C46320012077C53320012077CD6
:100B6300D6330012077C2B350012077C5D3500124B
:100B7300077CF0350012077C29360012077C753696
:100B83000012077C91370012077CDA390012077CC8
:100B9300E5390012077CF0390012077CFA3900129C
:100BA300077C053A0012077C1F3A0012077C293A9A
:100BB3000012077C333A0012077C3E3A0012077C8E
:100BC300663A0012077CC13A0012077CE53A00122C
:100BD300077C093B0012077C673B0012077CAB3B99
:100BE3000012077CC73B0012077C3E3C0012077CC7
:100BF300763C0012077CC23C0012077C1F3D0012AA
:100C0300077CD93D0012077CBD3F0012077C1640CC
:100C13000012077C46410012077C6C410012077CDE
:100C2300F5420012077C71460012077C434800120C
:100C3300077C0C4A0012077CB94A0012077C244C3B
:100C43000012077CC34C0012077C084D0012077C7E
:100C5300724D0012077C814D0012077C0850001270
:100C6300077CBA510012077C27520012077C0653F7
:100C73000012077C1F540012077C9C550012077C4E
:100C8300BB550012077C10560012077C1557001243
:100C9300077C3D570012077C95570012077C745858
:100CA3000012077CB8580012077C03590012077C16
:100CB3006E590012077CAF5A0012077C135B0012B7
:100CC300077C615C0012077CC15E0012077CF25E48
:100CD3000012077CAA600012077CFF600012077CE9
:100CE30003620012077CA0620012077CF962001203
:100CF300077CAC630012077C4E640012077CEE6431
:100D03000012077C93650012077C6A800112077C3E
:100D1300A9800112077CF0820112077C3A83011239
:100D2300077C55840112077CC5840112077CFA8471
:100D33000112077C6E860112077CF1880112077C81
:100D43001A8A0112077CB08A0112077CB893011238
:100D5300077C4D940112077C34970112077C279876
:100D63000112077C88980112077CA4990112077C61
:100D7300899B0112077C9A9D0112077C049E011234
:100D8300077CD69E0112077C8D9F0112077C979FDB
:100D93000112077CC59F0112077C82A00112077C08
:100DA30059A10112077C20A20112077CD2A20112D1
:100DB300077CFBA20112077C1DA30112077C73A50C
:100DC3000112077C4BA60112077C8FA60112077C38
:100DD300F7A60112077CAFA70112077CE1A7011256
:100DE300077C25A80112077C5BA80112077CA7A832
:100DF3000112077CFCA80112077C01A90112077CE0
:100E030054A90112077C79A90112077C88AA01124F
:100E1300077CECAA0112077C5CAB0112077CE8ABF0
:100E23000112077CB5AE0112077C99AF0112077C52
:100E33001CB10112077C52B30112077C00B40112EA
:100E4300077CB0B40112077CF1B60112077C94B79A
:100E53000112077CDBB70112077C87B90112077CFB
:100E63009BB90112077CA5B90112077CCDB9011208
:100E7300077CD9B90112077CF8B90112077CDDBBE5
:100E83000112077C14BC0112077C1EBC0112077CF3
:100E930054BC0112077CA3BD0112077CE7BD0112FC
:100EA300077C8FBE0112077C72BF0112077C1DC035
:100EB3000112077C69C10112077C67C20112077C1A
:100EC3000DC30112077C9DC30112077CB4C3011239
:100ED300077CEBC30112077CF5C30112077C00C436
:100EE3000112077C1EC40112077C62C40112077C35
:100EF300BFC40112077CE4C40112077CFEC40112C3
:100F0300077C8AC50112077CA7C60112077C14C798
:100F13000112077CFBC70112077C22C80112077C60
:100F230096C80112077C11C90112077C15CA011268
:100F3300077C0BCB0112077CBACB0112077CCDCC0B
:100F43000112077C69CD0112077CF6CD0112077CE3
:100F5300D4CE0112077C0CCF0112077C64CF01129F
:100F6300077C2DD00112077C4ED00112077CD5D00F
:100F73000112077CF9D00112077C1BD10112077CF7
:100F830064D10112077C7AD30112077C61D4011268
:100F9300077C12D50112077C48D70112077C98D72A
:100FA3000112077CD8D70112077C1AD80112077CDB
:100FB30076D80112077CA4D80112077CC8D8011285
:100FC300077C1BD90112077C49D90112077C82D9FE
:100FD3000112077CD7D90112077C3DDA0112077C85
:100FE30091DB0112077CB4DD0112077C21DE0112C3
:100FF300077C4ADE0112077CD5DE0112077C3CDF49
:101003000112077C87DF0112077CABDF0112077C2B
:10101300CFDF0112077C2AE00112077C45E00112B1
:10102300077CFEE00112077C1AD50312077C59D511
:101033000312077C78800212077CBE800212077CB1
:101043009E810212077CA0820212077CA3830212F4
:10105300077C2F850212077C8D850212077C4A8646
:101063000212077C68870212077CD9870212077C69
:1010730015880212077C63880212077C6D880212AE
:10108300077CB1880212077C0D890212077CA889AC
:101093000212077C258A0212077CF48A0212077C5B
:1010A3008D8B0212077CAD8B0212077CE38B02123D
:1010B300077C148C0212077CD58C0212077CE58C0A
:1010C3000212077C398D0212077C548D0212077CB1
:1010D300668D0212077C6F8D0212077CC98D021286
:1010E300077C258E0212077C718E0212077C8C8E80
:1010F3000212077CBD8E0212077CDA8E0212077C75
:10110300E68E0212077C5A900212077C7390021239
:10111300077CDA900212077CED900212077CFB90A9
:101123000212077CAF910212077C93920212077C92
:1011330099930212077C23940212077C2D940212C6
:10114300077C9A940212077CB1940212077CE39401
:101153000212077C1C950212077C46950212077C3B
:10116300A7950212077CC7950212077CE595021228
:10117300077C2B960212077C51970212077C9E97DD
:101183000212077CCD970212077C43980212077C58
:101193006B980212077CA4980212077CB298021281
:1011A300077C0A990212077C59990212077C9899C5
:1011B3000212077CC8990212077CF4990212077C79
:1011C300FF990212077C1D9A0212077CDF9A021212
:1011D300077CE99A0212077C249B0212077C3A9B44
:1011E3000212077C8F9B0212077CA39B0212077CCF
:1011F300B19C0212077CC49C0212077CD99C021288
:10120300077C7B9D0212077CFE9D0212077CBC9E1D
:101213000212077CC79E0212077CF39F0212077C0F
:101223000FA00212077C61A00212077CA0A0021289
:10123300077CB5A00212077C17A10212077CA6A1A6
:101243000212077CF1A10212077C42A40212077C5E
:10125300C0A40212077C35A50212077C57A702120D
:10126300077C6FA70212077C72A70212077C7EA776
:101273000212077C92A70212077C9AA70212077C2C
:10128300CDA70212077C7DA80212077CF3A80212E5
:10129300077C66A90212077C1AAA0212077CCFAA4E
:1012A3000212077CEEAA0212077C8EAB0212077CA5
:1012B3009AAB0212077CC5AB0212077CC8AB0212C1
:1012C300077C32AC0212077C5AAD0212077C32AEA5
:1012D3000212077CBDAE0212077CD6AF0212077C56
:1012E30093B00212077CCCB00212077CFDB002124D
:1012F300077CBBB10212077CEBB10212077CC6B2BA
:101303000212077C5FB30212077CEAB30212077C66
:101313009BB40212077C6BD60212077C50B50212F3
:10132300077C91B50212077C21F50212077C86F532
:101333000212077CC3F50212077C12F60212077C25
:1013430028F80212077C0BFA0212077C75FD0212C1
:10135300077CB0FD0212077CD2FD0212077C35FE2A
:101363000212077C69FE0212077C8CFE0212077CC4
:1013730035E20212077C15FF0212077CB6F2011256
:10138300077C34F30112077C6AF30112077CD6F35E
:101393000112077C49F50112077C65F50112077CF0
:1013A300AAF50112077C38F60112077C91F60112A7
:1013B300077CBEF70112077CD0F80112077C2DF9D8
:1013C3000112077C99F90112077CFAF90112077CD3
:1013D3003BFA0112077CE8FA0112077CFAFB0112BF
:1013E300077C25FC0112077C70FC0112077CB7FC0B
:1013F3000112077C49FD0112077C04FE0112077CE0
:10140300099E0312077C559E0312077CC39E031299
:10141300077CE49E0312077C949F0312077C9D9F25
:101423000312077CF09F0312077C19A00312077CA9
:1014330080A00312077C11A10312077C53A103129E
:10144300077C9DA10312077CFCA10312077C28A241
:101453000312077CB9A20312077CF8A20312077CCC
:1014630037A30312077C6CA30312077C7EA303122A
:10147300077C90A30312077CAFA30312077CB8A3D6
:101483000312077C6EA40312077CAEA40312077C2D
:101493009AD00312077C87C50312077CBDC50312CC
:1014A300077C06C60312077C56C70312077CDF6559
:1014B3000012077C1E670012077C5A670012077C24
:1014C30019690012077C42690012077CD56B001270
:1014D300077C196C0012077CA26D0012077C3A6E20
:1014E3000012077CA26E0012077C436F0012077C78
:1014F300856F0012077CC56F0012077C50710012C4
:10150300077CC0720012077CE5740012077C137518
:101513000012077C3A750012077C43750012077CA2
:10152300CA750012077CE8780012077C12D60312F2
:10153300077C28D60312077CCFD40312077C98B507
:101543000312077CABB50312077C48B60312077C72
:1015530083B60312077C9EB60312077CC3B603123D
:10156300077C08B70312077C39B70312077C6AB7F5
:101573000312077CF0B80312077C38D20312077CEE
:101583006ED20312077C8AD20312077CCCD20312D9
:10159300077CDCD20312077C3BBE0312077C6FBEC1
:1015A3000312077C7ABF0312077C51E40212077C03
:1015B300A6E40212077C8FE50212077C28E60212DA
:1015C300077C72E60212077CD4E60212077CE8E687
:1015D3000212077CCAE80212077C45E90212077C63
:1015E3006FE90212077C48EB0212077C63EB0212DD
:1015F300077CB2EB0212077CC8EB0212077CD5EB27
:101603000212077C09EC0212077C22EC0212077C0F
:10161300C2EC0212077C1CED0212077C6AED021277
:10162300077C7DEE0212077CEEF00212077C1AF1B2
:101633000212077C9FF10212077C00F20212077C60
:1016430005F20212077C41F20212077CA3F2021296
:10165300077C73F30212077C98F30212077CA2F350
:101663000212077CA5F30212077C14F40212077C12
:101673002FF40212077C42F40212077C6EF402126A
:10168300077CA9F40212077CACF40212077CE8F48D
:101693000212077C81D40312077C99D40312077CBE
:1016A300C5960312077C14970312077CB69803129E
:1016B300077C729A0312077CBA9A0312077CA29BD7
:1016C3000312077CD39C0312077CF59C0312077C4F
:1016D300519D0312077CD59D0312077C38E101124B
:1016E300077C63E10112077C46E20112077CCBE22F
:1016F3000112077C34E30112077C80E30112077CAB
:10170300FFE30112077C91E40112077C21E501123A
:10171300077C63E50112077CACE90112077C2CEB23
:101723000112077CFCEB0112077C23EC0112077CFE
:1017330084EE0112077C10EF0112077C12F00112F4
:10174300077CABF00112077C9CF10112077C1EF2AF
:101753000112077C00800312077CBA800312077C06
:101763002C810312077CC8810312077C3882031281
:10177300077CF1840312077CC8850312077C358636
:101783000312077CB2870312077C7C880312077C51
:10179300C3890312077CD68A0312077C6F8B03125B
:1017A300077C358C0312077C0AB90312077C5EB9E8
:1017B3000312077CB6B90312077C01BA0312077C34
:1017C30063BA0312077CFCBA0312077C64BB0312DF
:1017D300077C70BB0312077C267E0012077C577EB2
:1017E3000012077C117F0012077C777F0012077CB1
:1017F30028C80312077C6DD10312077C7ED1031224
:10180300077C1ED20312077CE6D20312077CF4D2B4
:101813000312077C32D60312077C61FF0212077C96
:1018230071FF0212077C86FF0212077CE5FF02129A
:10183300077C98CF0312077C1DD00312077C81D04D
:101843000312077CB4C90312077CDAC90312077CAD
:1018530040CA0312077C45CA0312077C83CA0312DA
:10186300077CE0CA0312077C13CB0312077C28CB47
:101873000312077C9CCB0312077CB6CB0312077CB5
:10188300C9CB0312077CD7CB0312077CF1CB03121E
:10189300077C11CC0312077CE8FF0212077CF8FFD8
:1018A3000212077CDCFF0112077CD7A40312077C1A
:1018B3002CA50312077C28A70312077C5AA703123F
:1018C300077C7CA70312077C95A70312077CAEA7AE
:1018D3000312077CB8A80312077C53A90312077CE1
:1018E3007BFE0112077C9FFE0112077CB8FE0112EA
:1018F300077CEBFE0112077C1CFF0112077C4AFFE9
:101903000112077CACFF0112077CBBFF0112077CAD
:10191300C5FF0112077CD2FF0112077CABBB031288
:10192300077CD1BB0312077C0EBC0312077C1DBCD2
:101933000312077C3CBC0312077CA4BC0312077C84
:10194300ADBC0312077C0CBD0312077C30BD031230
:10195300077CEFBD0312077CFCBD0312077C0DBEA1
:101963000312077CA9D50312077CC6D50312077C93
:10197300CAA90312077C2AAB0312077C37AB0312F5
:10198300077C4AAB0312077C69AB0312077C7FAB6E
:101993000312077C93AB0312077C08AC0312077C8A
:1019A3006DAC0312077C1DAD0312077CF2AD03126D
:1019B300077C02AE0312077C11AE0312077C97D398
:1019C3000312077CBBD30312077CE3D30312077C08
:1019D3000BD40312077CC4C00312077CEBC00312B1
:1019E300077C0CC10312077C71C10312077C2AC355
:1019F3000312077C43C30312077C4FC30312077C04
:101A030063C30312077C81C30312077C8BC30312D6
:101A1300077C95C30312077CA8C30312077CFBC38F
:101A23000312077C34C40312077C63C40312077CCC
:101A3300B1C40312077C00C50312077C1BC5031244
:101A4300077C25C50312077C36C50312077C7CC5BA
:101A53000312077C30D40312077C898D0312077CA1
:101A6300B38D0312077CCF8D0312077CE28D031223
:101A7300077CF88D0312077C558E0312077C888E32
:101A83000312077CC4920312077CEA930312077CB8
:101A93001D940312077C69940312077C9595031226
:101AA300077CBD950312077CD2950312077CE29550
:101AB3000312077C26960312077C87960312077C82
:101AC30097960312077C46CC0312077C61CC031262
:101AD300077C8ACC0312077CA4CC0312077CC9CCF5
:101AE3000312077CE8CC0312077C00CD0312077CAA
:101AF3002ECD0312077C48CD0312077C63D5031256
:101B0300077C18B20312077C1FB20312077C2BB3A6
:101B13000312077C5BB30312077C81B30312077CB8
:101B2300A4B30312077CC6B30312077C00B40312E9
:101B3300077C66B40312077C9FB40312077CEBB4E3
:101B43000312077C18B50312077C38B50312077C10
:101B53008CCE0312077CA4CE0312077C92CF031210
:101B6300077C95CF0312077C79CD0312077CEBCD5D
:101B73000312077C29CE0312077C6ACE0312077C6B
:101B83004AAE0312077C69AE0312077CB8AE031298
:101B9300077CD4AE0312077C05AF0312077C15AF95
:101BA3000312077C22AF0312077C2FAF0312077CBB
:101BB3001BB00312077C59B00312077C63B00312F6
:101BC300077C73B10312077C7EB10312077C90B1CB
:101BD3000312077C99B10312077CA3B10312077C9C
:101BE30069790012077CAE7D0012077CBC7D001270
:101BF300077CE5D50312077CBFD50212077C05D409
:101C03000212077CB5D10212077C3CD10212077C79
:101C1300E3D00212077C73D00212077C4AD002126F
:101C2300077C2ACE0212077CF6CD0212077CC3CDB5
:101C33000212077CA7CD0212077CC0CC0212077CDC
:101C430078CC0212077CC3CA0212077C43CA021271
:101C5300077C40CA0212077C41C90212077C0FC9E4
:101C63000212077C4CC80212077C77C60212077C5B
:101C730008C60212077CE8E00212077C93DE021218
:101C8300077C29DE0212077CE1DD0212077C53DDAB
:101C93000212077CDAC50212077CD7C50212077C41
:101CA300C4C50212077C6FC50212077C46DD02120F
:101CB300077C5EC50212077C50C40212077C1AC45B
:101CC3000212077CC8C30212077C40DA0212077CA7
:101CD300B9FE0212077C69C30212077C38C30212E1
:101CE300077C00C00212077CC0BF0212077CB4BF8E
:101CF3000212077C14BF0212077C54BE0212077C37
:101D0300D6BB0212077C67B90212077C25B90212FF
:101D1300077CF9B70212077CAEB70212077CEDB657
:101D23000212077C30B60212077C00B60212077C4F
:101D3300A2D70212077CC6B50212077C1EB50200A9
:101D4300000080FBE473000136360101000102014B
:101D5300000103010001040106060502000007015A
:101D630000340801000F090401010D0100FF0E08F2
:101D7300000017020000190100FF1A0100011B01F6
:101D830000FE1C0100081D0200001F0100012001CC
:101D93000001210200002301000F2402000026019C
:101DA300000127010008280200FF2A0100072B0178
:101DB30002402C0100002D0100012E0100012F0122
:101DC30000FF30010B1C310800003A0100083B0101
:101DD300000F2F01000003027102300160021102A3
:101DE30070020102020202028002100261023A0042
:101DF3004100630273027202620243020002130291
:101E03003800000200020402120200020002000273
:101E1300000204020402370037003C0244020002BD
:101E2300390000020002650200023502810200024D
:101E33000502820283020002030071003001600088
:101E43001100700031022003500480001000610073
:101E5300000014006300730072006200430000007E
:101E63001300060000000000040012000000000040
:101E73000000000004000400370037003C02440067
:101E83000000000000000000650000003500810034
:101E93000000050000008300000003047104020435
:101EA3006004110470040204020401040204100417
:101EB300610400041404630473047204620443049D
:101EC30000041304060400040004040412040004C0
:101ED300000400040004510464000004000400042E
:101EE30044040004000400040004650400043504F1
:101EF30081046400050400048304000401037103E6
:101F0300010301030103010301032203020301038C
:101F13001003000300030003000300030003000396
:101F23004203000324030603000300030403120314
:101F330025032303250323030403040300030003EE
:101F4300000344030003000323030003650321008C
:101F530035038103000305030003000300030101AC
:101F630071010101010111010101310101010101AE
:101F73008001100161013B001400630173017201D0
:101F8300620143010001130106013D013500040113
:101F930012010001000100010001040104013301E9
:101FA30033013C01440132013600000100016501A7
:101FB3000001350081010001050182018301000157
:101FC30036000100060000000F00000000000000C2
:101FD30000000000000003FFFF00000403FFFF00F8
:101FE30000FFFF0FF4010005C404032000010000FB
:101FF3000B000000000000000003010F00006C173D
:1020030013002A1701006C170200F4160300FA16D6
:10201300040000170500061706001217FFFF000053
:1020230001520D067C0D08760D0B940D10CE0C029B
:10203300580D056A0D075E0D0C340D0D460DFF009E
:102043000003EAF5E5D5D5C5B5A5959585857575DF
:10205300656555554545353525251515057211A277
:102063001178117E119C1190118A11A811AE11B42F
:1020730011C01184116C11661100160F00000B15AD
:102083000B020002220F32000006621274127A124F
:102093003C1180123611421176107010AC10B21040
:1020A300A6105E10C212E012E612C812D412CE12AB
:1020B300303016181920231A1C1E300C0E020B0484
:1020C3000B0A0708000F00383C3E363B3B352B43D9
:1020D3002C303017181921301B1D1F300001191621
:1020E3001816161523030000034948424D181725F7
:1020F3000502B61286128C12981292129611BA1118
:10210300DA12C611CC110204020101010109028293
:102113001088107C10B8100000000000008E10A082
:102123001000BE040A0E00150004007F00E8030C33
:10213300002800000000000308100C0A030809002F
:10214300040001FF1E1E0C05040F08C082C0838A11
:10215300828B83E0D2E7F012165E023202C082C0A5
:1021630083790012261A12556BC082C08390033400
:102173001242F1D083D082C3E09CA3E09D500C12A5
:102183005C3FFAA3E0122191600109023202FBEAEB
:1021930075F00BA4FAA8F075F00BEBA428FB9003E1
:1021A30036E02AF8A3E03B8882F583E0540F2274DB
:1021B300F71202F8890812261A1226C0ACF075F03D
:1021C3000BE9A42CF9900336E028FEA3E039FF7451
:1021D30001650860067402650870208A828B831289
:1021E30026AC1235E274026508701B12256B1226A9
:1021F300F370138E828F83E4F0800BEA2403FCEBED
:1022030012268E12269AEEFAEFFB120A5202353F7D
:1022130074F41202F812656679008E828F83E0608F
:1022230076890A890B8065E50A75F00BA4FAA8F094
:1022330075F00BE50B12219E7046E50A75F00BA4B1
:10224300F8AAF075F00BE50B1226D28E828F83E08D
:102253008508828509831227B4850882850983A3AB
:102263001235E2EE2403FCEF1226971233C0124F0D
:10227300E5AA08AB09120A5279019003341249FA0C
:10228300E50A2401F50AE50B3400F50B122573E585
:102293000A9AE50B9B409002378C74F51202F8EA18
:1022A300FEEBFF740B120A2D1233C5750A01EC4DB8
:1022B300602BEC126582ED12556B1235DA7901123F
:1022C3000A5EE5084509606F850882850983A312C4
:1022D30065707902AA08AB09120A5E805AE50845BF
:1022E30009602B12556F123C391233C11226DD706F
:1022F3000CEEFAEFFB120A64E9F50A80CBEE240335
:10230300FA12261570317903EEFAEFFB80CA8E823A
:102313008F83A3E064FE7003A3E0F4700BEE240349
:102323000A0A0A122615700CEEFAEFFB120A64E988
:10233300F50A8003750A00A90A7F0302055774F79B
:102343001202F890033412354FEA4B602FEA75F00E
:102353000BA4FAA8F075F00BEBA428FBEAFEEBFF45
:102363001214A290033612354F90033612483F6081
:1023730012EEFCEFFD790012140C8007900336E493
:10238300F0A3F002353F900334123FA9C3EE98EF58
:102393009922C082C083EC4D6005121B7A80097CB0
:1023A300087D00790012140C02320274F61202F84E
:1023B3007900EA4B6018780088081258B2EB125C77
:1023C3003B60047901780808E8C3940840EA0235C1
:1023D300EB74F71202F874F3120845ECFEEDFF8577
:1023E3001882851983E4F004120A2DEAF0A3EB1294
:1023F3004D6B7403120A2DAC82AD83EEFAEFFB1220
:102403000A76EEFAEFFB120A7C02353A74F71202EF
:10241300F874F3120845ECFEEDFF851882851983E5
:10242300E4F0EAFCEBFD7403120A2D1227AD7401EC
:10243300120A2D1235D68E828F831235E274FE680E
:10244300700374FF69600479018002790002353AF0
:1024530074F71202F8EAFEEBFF1224B1701412248F
:10246300BC8E828F83E0F4F88A828B83E058F0126B
:102473000A52A90802353F74F71202F8EAFEEBFF8D
:102483007508008E828F83E060221224B1701D12C2
:1024930024BC8A828B83E08F838E82F8E058700C91
:1024A300E0F88A828B83E048F0120A5280C4120A51
:1024B30058E9F508740165082212657B1226C412D7
:1024C3002606FAA3E039FB2274F41202F88A088B79
:1024D300097C007D0012256B12269A12262B1265A9
:1024E3006D7900850882850983A3E064FE7003A3E8
:1024F300E0F460717E007F008062EEFAEF122191BA
:102503006057EEFAEFFBEA75F00BA4FAA8F075F04A
:102513000BEBA428FB900336E02AF50AA3E03BF576
:102523000B850882850983A3124CB9850A82850B22
:1025330083A3E06A7003A3E06B701EE50A2403FA29
:10254300E50B122616700AE50A2403FCE50B122696
:102553009712261F7901125581122F0A122573EE45
:102563009AEF9B409502378CEA24030A0A0AEB226E
:10257300900334125158C32274F31202F88A088B61
:10258300098A828B83A312657012261A12656D75F0
:102593000C0012256B12261670547E007F008049B2
:1025A3001225F8FAA3E0398A82F583E0540F6036E6
:1025B3001225F8F50AA3E039F50BE50A2403FCE537
:1025C3000B1226A13400FB121B74E96401701785FA
:1025D3000A82850B83A3125219A31235E212261F16
:1025E300750C01125581122F0A12238940B2A90CCE
:1025F3007F05020557EEF8EFF9E875F00BA4F81222
:10260300260622AAF075F00BE9A42AF9900336E016
:102613002822EF1226ED22126581EB2212262B12BD
:10262300557CEEF0A3EFF022E508126582E509225E
:1026330074F51202F8EAFEEBFF8E828F83A3126514
:10264300707C007D00EE24030A0A0AEF12269AEE3C
:10265300FAEFFB120A58E9F50A7401650A702912A8
:10266300657B1226C0AAF075F00BE91226D2850805
:1026730082F5831226AC1226DD700DE5082403FCD7
:10268300E50912268E12269A02233A3400FDEE241F
:1026930003FAEF221226A13400FB120A7622340039
:1026A300FDE5082403FAE50922A31226B122122626
:1026B300B522E0F8A3E0F98E828F83A3221226C409
:1026C300223400F583123FADE875F00BA4F8221213
:1026D300260CF508A3E039F50922E8F0A3E9F0E5B3
:1026E300082403FAE5091226ED221226F3640122D7
:1026F3003400FB120A7CE92274F31202F874E61226
:102703000845126566750C01750800750900750AA0
:1027130000750B00851882851983E4F0EE2403FC11
:10272300EF3400FD7403120A2D1227ADE964017022
:1027330023740B120A2D1235DA7401120A2D124C6E
:10274300BD7003A3E0696051851882851983858272
:1027530008858309740D120A2DE41227B4740E122E
:102763000A2D1235E2740D120A2DAA82AB83120AC6
:102773009AE96401700B740D120A2D85820A858310
:102783000B780A120799AC08AD09EEFAEFFB120AAF
:102793006A74021207E1E9F50CEEFAEFFB120A94F0
:1027A300A90C741A1207E10225F3122A80120AA057
:1027B3002212354A123FA922C082C08378007900D1
:1027C30080031228AB122573E89AE99B5029E8FA93
:1027D300E9FBEA75F00BA4FAACF075F00BEBA42C53
:1027E300FB900336E02AFCA3E03B8C82F583E054A4
:1027F3000F70CF790080027901023202C082C08358
:1028030090212A123FFFEC75F012A4FCA8F075F09A
:1028130012EDA428FD79FF7ACA7B0612140C02324A
:102823000274F71202F8E9FEEAFF7A007B007800EF
:1028330079008028E8FCE9FDEC75F012A4FC85F032
:102843000875F012EDA42508122CC0C39E400AE0BF
:10285300FCEFC39C4003122DDF1228AB122CB440B3
:10286300D302353FC082C0837800790080031228E9
:10287300AB12289F501F122CC4F470F2E875F012AB
:10288300A4F8AAF075F012E9A42AF974CA28FA7414
:102893000639FB80047A007B0002320290212A125F
:1028A3002D75C3E89AE99B22E8240108E93400F96D
:1028B3002274F01202F874F31208458A0A8B0B8C07
:1028C3000C8D0D8908EC450D6016AA0CAB0D120A90
:1028D300EE8A0E8B0FAE0EAF0FEE4F60030229721E
:1028E300120AC48A0E8B0FA80EA90FE8FEE9FFE8AF
:1028F30049607C9021381229D460227403650860F2
:10290300067404650870167A047903120ABE9021CE
:10291300381229EB40077A007B000229D190213637
:102923001229D4601B74016508600674026508707F
:102933000F7A027901120ABE9021361229EB50D682
:102943008518828519837401F0120A2D124FE5ACA4
:102953000CAD0D7403120A2D122A79740B120A2D71
:102963001233CD1239C2E4124FCD120FB68004EEEA
:102973004F604A780074FF2508C39404500278041A
:102983008E828F83124FE58E828F83A3A3A3A3E549
:1029930008F0E88E828F83A3A3A3A3A3124FED12A3
:1029A3000217122D8C8E828F83A3A3A3A3A3A3A3A9
:1029B300F0122D83120A0A125565120A161229D92A
:1029C3004005900C26E4F0120E90EEFAEFFB023F66
:1029D300B312510749227A047900120ABE90212AC0
:1029E300125C21EA98EB9922122A047583217582DD
:1029F3002AE493C398F8A3E49399F9C3EA98EB996B
:102A030022E493F8740193F92274F21202F874F336
:102A13001208458A088B09ECFEEDFF750A00EEFAF1
:102A2300EFFB120AEE8A0C8B0DA80CA90DE8496086
:102A33003E88828983E065087004A3E06509602FFE
:102A430088828983A3A3A3A3E0C3940550211254CE
:102A5300138518828519837401F0120A2D125417F5
:102A6300EEFCEFFD7403120A2D122A79750A01A9EF
:102A73000A740D024AB1122A80120AAC22AA82AB4E
:102A830083120A76851882851983AA82AB832274FE
:102A9300F61202F8122ACE600FA3A3A3A3E014C375
:102AA300940450047901800279000235EB74F61224
:102AB30002F8122ACE600FA3A3A3A3E014C39402C7
:102AC30050047901800279000235EB120AE88A8208
:102AD3008B83E58245832274F61202F8122ACE60B4
:102AE3000BA3A3A3A3E0700479018002790002354C
:102AF300EBC082C083EAFCEBFD7A007B000231FF6E
:102B0300C082C0837C007D000231FF74F41202F89E
:102B130074F3120845EAFEEBFF8C0A8D0BC3EC94A9
:102B2300F8ED94FF4007EE4F7003022BC7750800C2
:102B3300750900802E8518828519837401F0122F80
:102B430032120A2D122F4060137403120A2DAC8225
:102B5300AD83EEFAEFFB121B74E97049E50824011B
:102B6300122D6090212AE412510FE50898E5099986
:102B73005052E50875F012A4F8AAF075F012E509B1
:102B8300A42AF9125C5460D4EE4F70A974FF650A4D
:102B9300700474FF650B60C4122F22650A7004A3CE
:102BA300E0650B70B7E50875F012A4F508A8F07599
:102BB300F012E509A428F50974CA2508FA74063544
:102BC30009FB80047A007B0002378774F41202F851
:102BD30074F3120845750800120AEE8A0A8B0BAECD
:102BE3000AAF0BEE4F602A85188285198374011290
:102BF3003544F8A3E0F9740B120A2D123665120A54
:102C03008E7C127D0079FFEEFAEFFB12140C75082F
:102C1300011229D95009900C267401F0120E90A9C3
:102C23000802378774F71202F8E9FE74FE6A70032C
:102C330074FF6B78007900700580521228AB122C58
:102C4300B4504AE8FCE9FDEC75F012A4FCAFF07552
:102C5300F012EDA42F122CC0F460E0E8FCE9FDECC7
:102C630075F012A4FC75F012EDA42FFD74CA2CF5B7
:102C73008274063DF583E06A7003A3E06B70BC8049
:102C830009122CC414C3940440171228AB12289FB2
:102C93005018EE70EC122CC464016005E0640370FC
:102CA300E9122F13FAA3E0FB80047AFE7BFF0235BF
:102CB3003F90212A124003C3E89CE99D22122E145F
:102CC30022E8FAE9FBEA75F012A4FAACF075F01207
:102CD300EBA42CFB74CE2AF58274063BF583E02229
:102CE300120B00023202C082C083790180F274F0B9
:102CF3001202F88A0A8B0B7A047901120ABE8A0C33
:102D03008B0DEA450D603EEAC333FAEB33FB121435
:102D1300A28A088B09AE08AF09EE4F60237AFE7BC7
:102D2300FF120B0674FE6A700374FF6B601B850849
:102D33008285098312354FE5082402122D6080E154
:102D4300750C0080047E007F00850A82850B83E575
:102D53000CF0EEFAEFFB023FB8E5082407F508E5AF
:102D6300093400F5092290212A124003C3EA9CEB9F
:102D73009D22E493FA740193FB221214007403223C
:102D8300125576E4F090804522E88E828F83A3A3C8
:102D9300A3A3A3A3A3A3122DAE7401122DAEA3F07C
:102DA300EE2410125579E4F0A3F0221239CEA3A336
:102DB300A322C082C0837A007B00800419122DDF16
:102DC300122D695010122DFEC3940550F0E970ECDA
:102DD300122DE880047A007B00023202EA24010A01
:102DE300EB3400FB22EA75F012A4FA75F012EBA49F
:102DF30028FB74CA2AFA74063BFB22EAFCEBFDECBF
:102E030075F012A4FCA8F075F012EDA428122E148C
:102E130022FD74CE2CF58274063DF583E02274F70F
:102E23001202F874F31208457E007F00022EC6E5F5
:102E33000875F017A4F8A9F0125EB5FAA3E0FBEE4B
:102E4300F8EFF9E875F012A4F8ACF075F012E9A404
:102E53002C122F216A7003A3E06B603FE50875F025
:102E630017A4F8AAF0EA125EB4F8A3E0F974011209
:102E73000A2DE0687003A3E0696020E50875F01788
:102E8300A4F8EAF9744628FC740839FD7403120A9D
:102E93002DAA82AB83121B74E96014E50875F01741
:102EA300A4F8A9F0744428FA740839FB120FC20578
:102EB3000890213CE493F8E508C3985003022E32AE
:102EC300122F0A90212A1261FB5039EEF8EFF91202
:102ED3002F13F47003A3E0F460E685188285198349
:102EE3007401F0EEF8EFF9E875F012A4F875F0123A
:102EF300E9A42AF9122F32120A2D122F4060C1754C
:102F0300080080AD02353AEE24010EEF3400FF22B3
:102F1300E875F012A4F8AAF075F012E9A42AF912E0
:102F23002F262274CA28F582740639F583E02274A9
:102F3300CC28F582740639123FA7740B22E8F0A35C
:102F4300E912366D120AA6E922C082C083900341BA
:102F53007464F0A3740DF002320274F71202F8EAFB
:102F6300FEEBFF900377E06408601BE064046016E7
:102F73008E828F83E05403640170481233C0123A87
:102F8300B8E06406703D8E828F83A3A3E064FE7075
:102F930003A3E0F4602D8E828F83A3A31235D69012
:102FA3000368E0687003A3E069700BEE2415F582F3
:102FB300EF125C3B6008120E1EE9F5088008120E42
:102FC3002480F67508C2EEFAEFFB1214A8022475EA
:102FD30074F41202F88A088B098A828B83E0F8A3BF
:102FE300E0FAE82AFAE43400FB1214A28A0A8B0BF3
:102FF300AE0AAF0BEE4F6063850882850983E0FC60
:103003007D00790012140C8E828F83A3A312657046
:10301300120E608E828F83A3A3A3A312354F85085C
:1030230082850983E0F8EE28F8EF34001235DE8557
:103033000882850983A3E0C0E0EE240D125568D011
:10304300E0F0120E72EE240E125568E9124C1AE0EB
:10305300C0E0EE2411125568D0E0F0EEFAEFFB0267
:10306300378C74F41202F874EB1208458A088B0942
:103073008C0A8D0BE9FE900377E064046005E0643D
:1030830008700479C2802EA378081209EEEE90032B
:103093007E1232401209EE7405120A2DE9F074040F
:1030A300120A2D7401F07407120A2DE4F0900377CD
:1030B300740212319D741502378974F61202F87482
:1030C300EB120845EAFEEBFF12483C600302316154
:1030D3007A077B001214A290033912354F12483C31
:1030E30060788E828F83120A0A90033A123ABB12D7
:1030F3000A16126434C0E012316DD0E0F0EE2405FC
:10310300FAEF3400FB8A088B098A82F583E0C0E07A
:10311300123168D0E0123783E0C0E0123168A3D0E7
:10312300E01235C3120A0A851882851983120A161A
:1031330088828983E0C0E07405120A2DD0E0F0850F
:103143000882850983E0C0E07404120A2DD0E0F000
:103153007407120A2D12319C8006791080027901BE
:1031630074150235E812316DA322900339E0FAA3F6
:10317300E0F5838A82A3A3A3A322C082C08312485B
:103183003C600D900339125146900339E4F0A3F0EB
:10319300120D8E120F62023202E412366D121BAA56
:1031A30022C082C083900338E07003121724120BED
:1031B30048804CC082C083900338E0900C25700493
:1031C300E4F0802D7401F0900338E0F460237C4137
:1031D300E0C394415002E0FCECF8E0C398F0EC75D6
:1031E300F0E8A4CCA8F075F003A428FD7A8012407F
:1031F3000B7A257B0C7941121B928003120AF4D0BF
:1032030083D08202077974F41202F874EB12084532
:103213008A088B098C0A8D0B900377740112324054
:103223001209EE7405120A2DE9F07404120A2D74C2
:1032330003F07407120A2D12319C0230B81235CEF6
:1032430078082274F71202F87C01120B5A02353FF8
:1032530074F21202F874FC120845E9851882851984
:1032630083F0EAFEEBFF8C0A9003751242F1120D14
:10327300828A088B09EA4509700579CA0233BB8A39
:10328300828B83A3A3A3A3A3A3A3E064FE7003A3DE
:10329300E0F4700579C30233BB900375124CB91285
:1032A3000FC8850882850983A3A3A3A3A3A3A3A30C
:1032B300A3A3E00490038812351E7402120A2D742E
:1032C30002F014120A2DAA82AB83120ECC8A0C8B45
:1032D3000DAE0CAF0DEE4F70030233B21233C012BA
:1032E3003C2D7406F0A3A882A98390036212518334
:1032F300123F86F0EE24131255687401124FC57401
:1033030040F0A3E4124C13A3A31233CD1235E2EE23
:103313002411125568E50AF0EEFAEFFB120B24E9CB
:10332300FE60030233B49003777409F0122D5CAA94
:1033330008FB794B121B928508828509831235108D
:103343001235E290036AE0F8851882851983E068F4
:10335300600CE090036A12366979E1121B92900CBB
:10336300601235D6900C62E0687003A3E069601ABE
:1033730090033B1235E2900C62124CB9120E8A9004
:103383000C621242F17A0112400B7A007B04900323
:10339300C2E0F9121562900C621233C57402780808
:1033A300120923AC08AD09FA7B0412400D80027E9A
:1033B30010900527E4F0EEF97404024AB1EE1255B9
:1033C3007722E0F508A3E0F509221233D122122671
:1033D300B5A32274F51202F874E212084585188227
:1033E300851983ECF0A3EDF0EAFEEBFF890874295D
:1033F300120A2DE0F509742C120A2DE0F50A900348
:1034030077E064046005E06408700579C20235085A
:10341300742A120A2DE064FE7003A3E0F4700579A8
:10342300C302350890037774031236697950121B6F
:1034330092742A120A2DAA82AB83794B121B9285AE
:1034430018828519831235171235E2E50890036A4D
:10345300F0742A120A2D1235101235E2E509900391
:103463006212351E74CE55094480C0E07412120AEC
:103473002DD0E0F07401250A900388F0740F120A2E
:103483002D7402F0742A120A2D1235D67407120A0B
:103493002DE8F0A3E91235557410120A2D1235E206
:1034A3007405120A2DE508F0741B120A2DE4F0903E
:1034B300037D740FF07A7D7B037954121B92900382
:1034C3007C740FF07A7C7B037947121B9290037C08
:1034D300E0C3940F50237405120A2DE0C0E0740278
:1034E300120A2DD0E0F07404120A2D7401F00412B4
:1034F3000A2DAA82AB83121BB67405120A2DAA8267
:10350300AB83121B98741E1207E102233C123FA9DE
:1035130090036B22123FA990037522F0EEFCEFFD9E
:103523007A897B03121B7A2274F71202F8EB900359
:103533007FF0120D708005740D1207E17F01020503
:103543005712354AA3E0221235C3A322EAF0A3EBB4
:10355300F0221235C9F8A3E0F92274F71202F874C5
:10356300F8120845EAFEEBFF7900900377E0640860
:10357300704485188285198374FDF0A374FFF012DB
:103583000E5A7402120A2D12354F7405120A2DE4D5
:1035930012354AE0C0E07404120A2DD0E01235BEA1
:1035A300C0E07406120A2DD0E0F07407120A2DE46D
:1035B300123669120EAE740802353C1235C3E0228E
:1035C300F08E828F83221235CEE022F08518828519
:1035D300198322123FA922E0F8A3E0F9125576E8F5
:1035E300F0A3E9F0221207E17F02020557C082C06F
:1035F300839003497414F0A3740CF09003EF7408E0
:10360300F0A3740FF090034D744AF0A3740CF09080
:10361300034F7414F0A3740CF09003517450F0A38F
:10362300740CF002320274F41202F874F9120845B1
:103633008A088B098C0A8D0B851882851983780873
:103643001209EE7404120A2DE9F07405120A2DE42E
:10365300F07406120A2DE4123669120B367407024F
:103663003789E8F0A3E912366D221235CEAA82AB70
:10367300832274F41202F88A088B098A828B8312DC
:103683005584EE4F700302378190031212483F6056
:10369300158A828B83A3A3E0F9EEFAEFFB90031361
:1036A300123ABB121D478E828F83A3A3A3A3A3A3A6
:1036B300A3A3A3E0640270748E828F83A3A3A3A346
:1036C300A3A3E0540270030237538508828509835C
:1036D300A3A3E064E960798E828F83A3A3A3A3A34A
:1036E300A3A3A3A3A3E07014900C75E0048E828FB0
:1036F30083A3A3A3A3A3A3A3A3A3A3F08E828F83D4
:10370300A3A3A3A3A3A3A3A3A3A3E014123783A3F5
:10371300A3A37404F0900C76124FBFE8F0A3E91250
:1037230060988B0BEA450B7003125A768E828F8357
:10373300A3A3A3A3A3A3A3A3A3E0640260128E8203
:103743008F83A3A3A3A3A3A3A3A3A3E06406702EC1
:103753008E828F83A3A3A3A3A3A3E0A2E0501F851C
:103763000882850983A3A3E0F9EEFAEFFB121C2E6E
:103773008E828F83A3A3A3A3A3A3E054FEF08009A7
:103783001239CA22740D1207E17F0402055774EC43
:103793001202F874DD120845EAFEEBFF8C088D096E
:1037A3007437120A2D780C1209D0750A00740512A9
:1037B3000A2DAC82AD83121C7C7412120A2DE070A8
:1037C300087415120A2DE060207405120A2DE0A278
:1037D300E6501E8E828F83A3A3A3A3A3A3A3A3A3B5
:1037E300124CB9120EE4E960087903121B62023924
:1037F300B07405120A2DE0540C64047005750B01B6
:103803008003750B00E0A2E55035750A01E50BA2B4
:10381300E0402C120E608A108B11A810A9111233EC
:10382300C0E0687003A3E06960157405120A2D12E5
:103833006577124CB5121C3AE96004790480AC74C4
:1038430005120A2DE0A2E650227406120A2DE05456
:103853000370187405120A2DE0540C640C600CE01C
:10386300540C64086005751001800375100074051D
:10387300120A2DE05403F8740268700C1265771273
:103883004CB5120A400239B0740168703AE510A2CF
:10389300E050031239B87405120A2DA882A9837463
:1038A30003120A2DE8F0A3E9123F9D8518828519BA
:1038B300831239C2E0C0E07402120A2DD0E012363E
:1038C30069121D1E0239B0E860030239B090035F2C
:1038D300E0640170108E828F83A3A3A3A3A3A3E04C
:1038E300700302383E7422120A2D7402123F9D7433
:1038F3001A120A2D1235E2E510A2E05008740512DF
:103903000A2D1239B8E50BA2E0506AEE240FF582B6
:10391300EF125C3BC0E07417120A2DD0E0F0900365
:103923001412483F70030239B0120E608A128B13CF
:10393300A812A913741A120A2DE0687003A3E06990
:10394300706B780C120791780A12079D780812079A
:1039530099A910740C120A2DAC82AD837421120A3A
:103963002DAA82AB83900314123AB8121D47740731
:103973001207E18038780C120791780A12079D78B4
:1039830008120799900375120624EE2412F582EFAC
:103993001259697423120A2DAC82AD83740E120A74
:1039A3002DAA82AB83121C2274091207E17423121D
:1039B30007E1026063126577125154121C7622E804
:1039C300F0A3E91239CA221239CE22F08E828F83F4
:1039D300A3A3A3A3A3A32274F71202F81216160239
:1039E300353F74F71202F812162802353FC082C021
:1039F3008312162202320274F71202F812162E02F2
:103A0300353F74F71202F87409120A2DE0F50878AD
:103A13000812079D12163A740102353CC082C08316
:103A2300121646023202C082C08312164C023202C0
:103A330074F71202F812165202353F74F71202F8A5
:103A4300EAFEEBFF89087401650870147900120C13
:103A53008C902147E493FC7900EEFAEFFB120C0201
:103A630002353F74F41202F874F9120845E9FE8A2C
:103A7300088B098C0A8D0B7413120A2D124CB99002
:103A8300057312483F6027EE851882851983F07409
:103A930001120A2D78081209EEEAF8EBF9740512FF
:103AA3000A2D123665900573123AB8121D47023675
:103AB30060FB90034BE0F8A3E0F58388822274F760
:103AC3001202F8900C28E0F97E00800B125C275458
:103AD3000D64017001190E123CBB5003E970ED0235
:103AE300353F74F71202F8900C29E0F97E00800B41
:103AF300125C27548D64817001190E123CBB500374
:103B0300E970ED02353F74F21202F8890BE975F0A2
:103B130006A4240CF508E5F0122D648A0CE50825AB
:103B23000CFAE5093400FB1214A28A0C8B0DAE0CBF
:103B3300AF0DEE4F6027AC08AD09790012140C12DB
:103B430033C0E50BF0EE2508F8EF3509F98E828FC7
:103B530083A3A3A3A3A3A3A3A3A31235E2EEFAEF24
:103B6300FB024AB474F61202F8EAFEEBFF120BDE14
:103B7300900C27E0F8E9C3984009900345124CB92B
:103B8300120BE4EE2402F8EF1252C99003471251CC
:103B930083900347E004F0EEFAEFFB120BEA85088B
:103BA30082850983E002577FC082C0837900900336
:103BB30045800109124CB98A828B83E58245837063
:103BC300F202320274F71202F8EAFEEBFFEE4F60E4
:103BD3005690034512483F604E888289837A007B62
:103BE30000EE65827003EF6583600FAA82AB8312D8
:103BF3003C2DE5824583602F80E7900345123C39D5
:103C0300687002EF698E828F8370081235D6900335
:103C13004580031260751235E2EEFAEFFB121CEEDB
:103C2300EEFAEFFB1214A802353F123C3122123F89
:103C3300AD8882898322123FA9EE22C082C083907D
:103C4300034580048882898312483F600B888289F8
:103C5300831242F1EC4D70EC8A828B83E4F0A3F083
:103C6300E849600688828983800390034512354FB3
:103C730002320274F71202F890034580048A828BA1
:103C830083123CB64B60257E0080010E123CBB5074
:103C9300ECEE75F006A4FCADF0EA2CFCEB3DFDEC7C
:103CA3002410F582ED123D0B70E180047A007B0055
:103CB30002353F125158EA22123D14EEC398227482
:103CC300F71202F87D0080010D123D10EDC39850EC
:103CD30034ED75F006A4FEA8F0E8FFEA2EFEEB3FF4
:103CE300FFEE2410F582EF123D0B70DCED75F0064C
:103CF300A4FEE8FFEA2EFAEB3FFBEA2411F582EB80
:103D0300125C3B4CF002353F125C476922123D14B2
:103D130022126581EB3400F583E0F82274F6120277
:103D2300F8120D047A007B008025EAF8EBF9E875B8
:103D3300F006A4F8ACF075F006E9A42C12512D128C
:103D43006442A3E4125223F0A31264481265BF90A5
:103D530021321229E340D37A007B00801C8A088B2E
:103D63000974037808120923124BE1A374FEF0A32C
:103D730004125003A3E41265BF90213B123DBE40E1
:103D8300DC7A007B00801D8A088B09740378081293
:103D93000923746C1258B3740B1260FA74FEF0A307
:103DA300041265BF902141123DBE40DB902145E4E2
:103DB30093900353F0123DC80235EBE493F8C3EA42
:103DC30098EB9400227CE87D037A107B009003C279
:103DD300E0F912155C2274F01202F874F51208452A
:103DE3008A088B09890A8C0BE9A2E050147508FC38
:103DF3007509FFA2E15005D2E4023E9BD2E3023EE5
:103E03009B124AA07003A3E06970057900023F6822
:103E1300AC0A7902AA08AB09120CE0E960EDE50AE5
:103E2300F50C780C12079D79027CFE7DFFAA08AB86
:103E33000912481B1207E1E96003023F66E50AC263
:103E4300E5F50A9003B5E07051E50AA2E6404B742C
:103E530003120A2DAC82AD83AA08AB09120A82E9C8
:103E6300703212413C8A0C8B0DA80CA90DE8FEE9B7
:103E7300FFE8496025EE24020A0AEF1226F3601ACE
:103E8300EE2402FCEF3400FD7403120A2DAA82AB68
:103E930083121B7AE50AD2E5F50A900348E0F50C94
:103EA300900368E0F50EA3E0F50F780E1207997DF5
:103EB300017C00900348E0F9AA0EAB0F120C987432
:103EC300021207E1E9F8900348E004F0E860030216
:103ED3003F66E50AA2E55004740E80027406C0E052
:103EE3007401120A2DD0E01255958A0E8B0FAE0E77
:103EF300AF0FEE4F6069123F86123F9D8882898320
:103F03007401F07478550AA3126587E50C1265876E
:103F1300A3E508F0E509123F75E4F0E50AA2E550D0
:103F23000F7403120A2DAC82AD83E82406123F6C92
:103F33008E828F83A3A374FDF0A374FFF0E50B605F
:103F430015902148E493F8E50BC3985009EE241328
:103F5300125568E50BF0EEFAEFFB120B248006799D
:103F630010800279C7740B8049FAE93400FB121BF5
:103F73007A2288828983A3A3A3A3123F81221252A8
:103F8300FCA322EE24171255797401F0120E5AEE97
:103F9300241A125579EAF0A3EB22F012657B340060
:103FA300123FA722F583123FAD22E0F8A3E0F922E6
:103FB300740D1207E17F0802055774F61202F87AAE
:103FC300007B10125A8360089003D47401F0802997
:103FD300900612E06401900C737006E0FC79018096
:103FE30004E0FC79037A007B00120C02902130126A
:103FF3003FFF7A007B1012400D0235EB1240032283
:10400300E493FC740193FD227B009003C2E0F91258
:1040130015562274EC1202F88A088B098C0C8D0D4C
:10402300890E7414120A2D1249FA7416120A2DE01D
:10403300F510A3E0F511120EE4E960077AFF7BFFA8
:10404300024139900C72E06402600302412C790052
:10405300AA08AB09120CE6A90E120CDA8A128B130A
:10406300AE12AF13EE4F70030241148E828F83A3FF
:10407300A3A3A3A3E064018E828F83A3A370691219
:104083004CB98E828F83A3A3A3A3A3A3E054186088
:1040930043902146E4938E828F83A3A3A3A3F0EAE4
:1040A300650C7003EB650D6014EA650A7003EB653C
:1040B3000B600AEA65107003EB6511701F7810122C
:1040C3000799AC0AAD0BAA0CAB0D120FE0740212E8
:1040D30007E18008900367125A6DA3F074FE6A70BB
:1040E3000374FF6B601D804EA3A3A3E064036029E8
:1040F3008E828F83A3A3A3A3A3E0640470057AFE37
:104103000240418E828F83A3A3A3A3A3E064027022
:10411300089003B4E06402701012413C8B0BEA4533
:104123000B6006AA08AB09800DAA08AB09900349E6
:10413300123AB8121D4702606390037512482112A8
:104143000FA42274F71202F8EAFEEBFF120AD6E973
:10415300700AEEFAEFFB120AE2E96006EEFAEFFBF1
:1041630080047AFE7BFF02353F74F01202F88A0A5C
:104173008B0B8C0E8D0F8909750800120EE4E979FB
:104183000060030242E3AA0AAB0B120CE6A9091270
:104193000CDA8A0C8B0DAE0CAF0DEE4F60198E82CC
:1041A3008F83A3A3A3A3A3E0640270559003B4E099
:1041B300640270030242E1AA0AAB0B90034F123A66
:1041C300B8121D47120AE88A0C8B0DA80CA90DE83A
:1041D3004970030242E188828983A3A3A3A3A3E0D6
:1041E300A2E040030242E1750C01A2E150687901AB
:1041F300AC0AAD0BAA0EAB0F120C32E9706402428B
:10420300E18E828F83A3A3A3A3A3E0640370057548
:104213000C0280528E828F83A3A3A3A3A3E0640125
:1042230060030242E19003751242F18E828F831282
:1042330046468A0C8B0DA80CA90DE84960D1902144
:104243003FE493FA88828983E0C39A50C2A3E06073
:10425300030242E180B988828983A3A3A3A3A3D2E3
:10426300E1F0EE4F603A8E828F83A3A3A3A3A3A3AF
:10427300E05418602B7508018E828F83A3A3120666
:1042830024750CFE750DFF780C1207997900AC0AA2
:10429300AD0BAA0EAB0F120CF874041207E1803EAB
:1042A300900368E0650E7004A3E0650F701490211D
:1042B30047E493FCA909AA0AAB0B120C0275080187
:1042C300801CA90CAC0AAD0BAA0EAB0F120C32E981
:1042D300700C750801A909AA0AAB0B120C8CA9086A
:1042E300023FB8E50C2415F582E50D12557C124FFB
:1042F300D92274EA1202F874F01208458A0C8B0D65
:104303008C088D097426120A2DE0F514A3E0F51527
:104313007512069003F512483F602390037512420D
:10432300F1AA08AB09120FCE8A108B11EA4511606E
:104333000D8A828B83A3E07005790002462EE50C7B
:10434300241DF50EE50D3400F50F850E8212482B62
:10435300F51388828983A3A3A3E0FA88828983A3C0
:10436300A3A3A3E0F9EA2400FEE439FFAA08AB09FA
:10437300120C92850E82850F83124669E029F50B94
:10438300E50AA2E5500375120E7487550A70177477
:1043930018550A6418600FE50C2417F582E50D1211
:1043A3005C3B651260077901121B62808C530A78AB
:1043B300C3EE94F8EF94FF501D7900EEFAEFFB1271
:1043C3004638601288828983A3A3A3A3A3A3E054DE
:1043D30018600302433C78081207997D0012465C7B
:1043E3001207E1E9F8740368700302433CE86003D1
:1043F3000244A77418550A700302455CE50AD2E02B
:10440300F50AA2E45004D2E1F50AA90A124CB21249
:104413004638605388828983A3A3A3A3A3A3E0544C
:1044230018604488828983A3A3A3A3A3E0640170D3
:1044330036E510451160309003751242F188828988
:10444300831246468A0E8B0FA80EA90FE849601700
:1044530088828983A3E0600F851082851183A3126C
:10446300578A500302433CE50AF50E780E12079D66
:1044730012464F1207E1E9702B7C007D0085148200
:1044830085158374FFF0A3F0850C82850D83A3A3A8
:10449300A3A3A3A3A3A3E060031242E6A90B124CB8
:1044A300B2121640851482851583E0F47003A3E0ED
:1044B300F460399003B4E06402700302433C124990
:1044C300EBE0FAA3E0123AB4121D47EA6508700361
:1044D300EB6509600302433CEEFAEF123AB4121D96
:1044E30047851482851583EAF0A3EBF07808120759
:1044F300997D0112465C1207E1A90AEEFAEFFB125D
:104503000CE68A088B09A808A909900368E068707B
:1045130003A3E069600302461FEEFAEFFB120AE809
:104523008A088B09A808A909E849606E88828983EB
:10453300A3A3A3A3E06401600D88828983A3A3A33B
:10454300A3E064027054851882851983AC82AD831D
:10455300EEFAEFFB120A828055900361E0600FE5EB
:104563000AF50E780E12079D12464F1207E1E50A6F
:10457300F50E780E12079D79027CFE7DFFEEFAEFB1
:10458300FB12481B1207E1E960030244A78514826A
:1045930085158374FFF0A30244EE120E5AEAFCEB76
:1045A300FD851882851983AA82AB83121B7A850C39
:1045B30082850D83A3A3A3A3A3A3A3A3E064017094
:1045C3000F1242E67408120A2DAA82AB83121B7AD9
:1045D3001247F51254014430F508780812079D7408
:1045E30001120A2D858208858309780812079974B8
:1045F3000B120A2D8582088583097808120799E52D
:1046030013F508780812079D7900EEFCEFFD124CB4
:10461300B2120C2C74061207E102433C1247F51246
:10462300556B124669E50BF0120E7274101207E116
:104633007F0E020557120CDA8A0E8B0FA80EA90FF4
:10464300E84922A3A3125158120FCE227901AC08D4
:10465300AD0912514D12481B22AC0BA91312514D37
:10466300120C98740222125409A3A3A3A32274F078
:104673001202F874F01208458A0C8B0DECFAEDFB6C
:10468300750F089003F512483F60141257838A820E
:104693008B83E58245836007A3E070030247F01232
:1046A30047F5340012482BF50B888289831247FEA5
:1046B300E0FBEC2400FEE43BFF88828983A3A31282
:1046C30047FEA3A3E0FBECF508E43BF509888289E8
:1046D30083A3A3A3A3A3A3A3E0F50EE50AA2E45037
:1046E30003750F10A2E550067408250FF50F748F9C
:1046F300550A700FE50C2417F582E50D125C3B6536
:104703000F60087901121B620247F0530A707800A8
:10471300E50AA2E450221247F5125C3B2408FCA3ED
:10472300E03400FD7408120A2DAA82AB83121B7AAF
:104733007808E50AC2E4F50AE50AA2E5502812471B
:10474300F5125C3B28F8A3E03400F9E82408FCE9FF
:104753003400FD851882851983AA82AB83121B7AE4
:10476300E50AC2E5F50AAC0EA90BEEFAEFFB120C53
:104773009EE9F87403686075900368E06E7003A3A4
:10478300E06F605EE87054E50AF50F780F12079D3D
:1047930012480C1207E1E97054780A12079D74015C
:1047A300120A2D85820C85830D780C120799740BE0
:1047B300120A2D85820C85830D780C120799E50B5F
:1047C300F50A780A12079DA90EAC08AD09EEFAEFB7
:1047D300FB120C2C74061207E18012740468700D2E
:1047E30080B7780A12079D12480C1207E174100271
:1047F3003FB5E50C241DF582E50D22A3A3A3E0FC40
:1048030088828983A3A3A3A32279011249F21255B3
:104813007C12482112481B22120C56740122E0FC20
:10482300A3E0FDAA08AB0922F583123C31A3E0F50E
:104833000A88828983A3A3E0229003391251B42208
:1048430074E81202F874F5120845EAFEEBFF8C08CF
:104853008D0989147423120A2DE0F50F7424120AAA
:104863002DE0F512A3E0F5137426120A2DE0F516D8
:10487300A3E0F5177428120A2DE0F50EA90F120C08
:10488300A48A108B117401120A2D7408F0E50EA28C
:10489300E450037410F0E50EA2E55004E02408F0A0
:1048A300851882851983AA82AB83120ECC8A0C8B5E
:1048B3000DEA450D70030249D2EA2417F582EB1283
:1048C30049E4120E5AE50C241AF582E50D12556BD4
:1048D30012354F7403120A2DAC82AD83AA10AB11AB
:1048E300120A82E9601D1249DC7403120A2DA882A0
:1048F300A983E50C2418F582E50D12556BE8F0A3A6
:10490300E98024E50EA2E4501FE5106E7003E51163
:104913006F70151249DCE50C2418F582E50D12556C
:104923006BE512F0A3E513F01249EB1249FA850A7D
:1049330082F5837402F0A3E50E124A02E50FF0EE4E
:10494300850A82850B83A3A3A3F0EF850A82850BD7
:1049530083A3A3A3A3124A02A3A3A3E508F0E50933
:10496300850A82850B83A3A3A3A3A3A3F0AA10ABF9
:1049730011120C92E92514850A82850B83A3A3A344
:10498300A3A3A3A3F0750800E50EA2E45011AC1293
:10499300AD13E50A2408FAE50B123F6E750808E526
:1049A3000EA2E55014AC16AD17E50A2508F8E50B81
:1049B3003400F9E82408123F6C850C82850D83A32B
:1049C300A3E510F0A3E511F0AA0CAB0D120B2474B0
:1049D3000B1207E17F10020557E50C2416F582E55B
:1049E3000D12557C7401F0221249F212557C22E516
:1049F3000C126582E50D22E0F50AA3E0F50B22F027
:104A0300850A82850B83A3A32274F21202F88A0813
:104A13008B09ECFEEDFF890A7900124AA07003A30B
:104A2300E069700479018073750B01900368E06598
:104A3300087004A3E06509601F750B00780B12076B
:104A43009DA90AEEFCEFFDAA08AB09120F20740121
:104A53001207E1E9F50B80417900EEFAEFFB120C46
:104A6300DAEA4B602B8A828B83A3A3A3A3A3A3E0DD
:104A73005418601C7508FE7509FF78081207998A97
:104A8300828B83A3A31206241263971207E1800982
:104A93007901EEFAEFFB120BBAA90B8014120CE6A4
:104AA3008A0C8B0DA80CA90D900368E068221207ED
:104AB300E17F0602055774F41202F87508B475090C
:104AC300097A1012609F8B0BEA450B7003123DC8E5
:104AD300900353E014F0700C902145E4939003533A
:104AE300F0120CF27E007F00806C850882850983BA
:104AF300A3A3A3A3E06059F46056E5082404F58258
:104B0300E509125A677049850882850983A3A3A31F
:104B1300A3A3E064037019790285088285098312CF
:104B230042F1850882850983A3A3124CB9120C3282
:104B3300850882850983A3A3A3A3A3E0640160106E
:104B430085088285098374FEF0A304124C13E4F0F4
:104B5300122F0A122D5C9021341261FB408C7E00CF
:104B63007F008039120E008E088F097403780812B3
:104B73000923742C2508FC740B3509FD7A3E7B0C44
:104B8300120DEEEA4B70DD8E088F0974037808125C
:104B93000923124BE1126442E4F0122F0A90213BE5
:104BA300E493F8C3EE98EF9400501B8E088F0974BA
:104BB300037808120923124BE9E82407F582E91266
:104BC3005A6770D680A17E007F00800A124BF46082
:104BD3000214F0122F0A1261F840F102378C124BC3
:104BE300E98882898322742C2508F8740B3509F926
:104BF30022EEF8EFF9E875F006A4F8AAF075F006CE
:104C0300E9A42AF974CC28F582740A39F583E022E1
:104C1300124C1AA3A3A322F0850882850983A3A3B8
:104C23002274F71202F874E1120845ECFEEDFF75E9
:104C33000800EE4F60728A828B83E0241C125A981C
:104C430012483F60638A828B83124CB98518828530
:104C53001983AC82AD83EA241BF582EB125969EA0E
:104C6300241CF582EB124CB5120E42740B120A2D62
:104C7300124CBD7003A3E069702E7402120A2DE07A
:104C830064017024741D120A2D123AB8E064017095
:104C930017741D120A2D123ABAA3A3E0F88E828F5D
:104CA30083E0687003750801A908741F02353C127C
:104CB30049F23400F583125158221226B1E06822DA
:104CC30074F41202F8E97024790090034D123AB893
:104CD300121D478A0A8B0BAE0AAF0B74FE6E70036C
:104CE30074FF6F701A902142E4936013790190036B
:104CF3004D123AB8121D478A0A8B0BAE0AAF0B123C
:104D03000E9002305E74F61202F874F31208451224
:104D130014188A088B09AE08AF09900368E06E7017
:104D230003A3E06F60E9120E66EA6E7002EB6F6038
:104D3300DEEEFAEFFB120EE4E970D4EE4F60D0859D
:104D43001882851983E4F004120A2DEEF0A3EF1202
:104D53004D6BE970BA74FE6E700374FF6F60B0EE52
:104D6300FAEFFB740D0235E812366D120A9A22C06F
:104D730082C083120E900232027F0A02055774F238
:104D83001202F8EAFEEBFF8C0A8D0B8908740E12EF
:104D93000A2DE0F50974FC6E700374FF6F700579DA
:104DA30000024AB47900120CE68A0C8B0DAE0CAFEC
:104DB3000D900368E06E7003A3E06F7006E509A22F
:104DC300E650DCA909126285706179007AFE7BFFE7
:104DD3001262857056741855097003024EB8780034
:104DE300790080031228AB9021341228A2400302D9
:104DF3004EB8E8FAE9FBEA75F007A4FAACF075F0EF
:104E030007EBA42CFB74BA2AF58274093BF583E003
:104E1300541870D0E875F007A4F8AAF075F007E904
:104E2300A42AF974B428F8740939F988828983A308
:104E3300A3A3A3A3A3E0541860097418550970032E
:104E4300024DA288828983EEF0A3EFF074FE650A17
:104E5300700474FF650B6003124FDF88828983A39C
:104E6300A3A3A3A3A3E509F0A2E0500D888289833D
:104E7300A3A3A3A3A3A3D2E2F07401650888828944
:104E830083A3A3A3A3A370387401125003E054189F
:104E93006028902146E49388828983A3A3A3A31265
:104EA3004FCD120FCE8B0DEA450D6003024DA27854
:104EB30000790080397902024DA4900367E080D71E
:104EC300E064017003024DA288828983A3A3A3A394
:104ED300A3A3E054186007902146E4938004900351
:104EE30066E0123F75E508F0024DA21228AB90214F
:104EF3003CE493FAC3E89AE994004003024DA27A92
:104F0300007B00804BEAFCEBFDEC75F007A4FCAEE4
:104F1300F075F007EDA42EFD74B62CF58274093DEF
:104F2300F583125584E8FCE9FDEC75F017A4FC85C4
:104F3300F00975F017EDA42509FD74442CF582746E
:104F4300083DF583E06E7003A3E06F609E122DDFD2
:104F5300902134122D6C40AD123FFFEC6A7002EDCC
:104F63006B7088E875F017A4F8AAF075F017E9A438
:104F73002AF9744428FE740839FF7C177D007900F0
:104F8300EEFAEFFB12140C8E828F83124FE590031F
:104F930075124FBFA3A3A3A3A3A3E8F0A3E9124FE2
:104FA300C57401F0EE240E1255687401124FED1210
:104FB3000217EE240D125568E8024EEA1233D1A30C
:104FC300A322F0EE240F12557922F0124FD6AA0A2B
:104FD300AB0B22900375E0FCA3E0FD22888289835A
:104FE300A3A3E50AF0A3E50BF022F0124FF22290FF
:104FF300213FE4932401F8E43400F97A027B002290
:10500300123F81A32274ED1202F88A088B09890EDC
:1050130012513640057905025104121688AA08ABCD
:1050230009125208902132125107650A7003E9658B
:105033000B70077AFE7BFF125208902132E4125163
:105043000FE50A98E50B99400302510212511360D0
:1050530012E50A75F006A4F875F006E50B12515E29
:105063001214A8E50E6018E50A75F006A4F8AAF074
:1050730075F006E50B12518A701A7901025104E5A5
:105083000A75F006A4F8AAF075F006E50B12516B49
:10509300E4F0A3F0E50A75F006A4F8AAF075F006AB
:1050A300E50B12512BA312541788828983A3AA827A
:1050B300AB831251798A828B83E0603F1251136074
:1050C3003A8E108F117512007810120795E50EC3F2
:1050D30033FCE433FDE50A75F006A4F50AA8F07580
:1050E300F006E50BA428F50B74D0250AF582740AA3
:1050F300350B124CB7122D7D1207E179008002792E
:105103000702629B122A04E82290212A125C2222BF
:10511300E50A75F006A4F8AAF075F006E50B12513E
:1051230066F8A3E0F9E84922A42A1252BF888289CB
:1051330083A322ECFEEDFF90213DE493F8E9C398AD
:1051430022F5831251581214A822E50C126582E548
:105153000D3400F583E0FAA3E0FB22125166FAA3B3
:10516300E0FB2212516BE022A42AF974D028F582C5
:10517300740A39F58322E50EF0900C7412518322E0
:10518300E088828983F0221252E3F50CE93400F5BA
:105193000DE50EC333FAE433FB1214A2850C8285AA
:1051A3000D83EAF0A3EBF0850C82850D831251B4D5
:1051B30022123FADE8492274F41202F8ECFEEDFF2F
:1051C300740C120A2D1235D688088909125208ACBC
:1051D3000AAD0BECF8EDF99021321252105021E890
:1051E30075F006A4F8AAF075F006E912512BE08ECB
:1051F300828F831252231252191235E279008002F0
:10520300790402378C120C688A0A8B0B22122D75D3
:10521300C3EC9AED9B22123FA9850882850983225C
:105223001252F82274F61202F87E007F008028EEF4
:10523300F8EFF9E875F006A4F8ACF075F006E9A408
:105243002CF974CE28F582740A125EA66A7003A341
:10525300E06B6057122F0A1261F840D31261F370AA
:1052630002E96F704674FE6A700374FF6B703C7ED4
:10527300007F008003122F0A1261F8502E124BF4A4
:1052830070F3EEF8EFF9E875F006A4F81252B512D0
:1052930052EA60171252D1F8E91252C988821251A8
:1052A30044850882850983E4F0A3F0EEFAEFFB025C
:1052B30035EB75F006E91252BD22A42AF974CC2805
:1052C300F8740A39F9223400F98808890922EEF8BA
:1052D300EFF9E875F006A4F875F006E91252E32237
:1052E3001252BDE8240422A3A374FE1252F51251F4
:1052F300B422F0A3041252FC22F088828983A3A370
:10530300A3A32274F61202F8EA241DF582EB1254C9
:1053130001F9604BEA241DF582EB125C3B2402FC8D
:10532300A3E03400FD12513A40030253F4780080A5
:10533300298C828D83E0F508A3E0FFE5082400E4CF
:105343003FF509E833FEE433FF74142EF582740B42
:105353003FF5831254171253F708E8C39940D28AD2
:10536300828B83A3A3A3A3A3A3A3A3A31242F1901A
:105373000368E06C7003A3E06D700F7C147D0B1267
:10538300261A124CB5120C5C8067EA2411F582EBE5
:10539300125C3B605CFC74FF2CF07508017808120A
:1053A300079D75081475090B7808120799E9F50824
:1053B300780812079DEA2412F582EB125C3BF5088C
:1053C300780812079DEA2415F582EB12556B120635
:1053D30024ECF912261A1242EE8A828B83A3A3A32A
:1053E300A3A3A3A3A3A3124CB9120C7474071207AB
:1053F300E10235EBEC24020C0CED3400FD221255D6
:105403007C125409E022E0F8A3E0F5838882A3220A
:1054130088828983E508F0A3E509F02274EA120281
:10542300F874FD1208458A148B158C0E8D0F890DA7
:105433007419120A2D125584741B120A2DE0F511EA
:10544300741C120A2DE0F50C741D120A2D1249FA70
:10545300741F120A2DE0F5106008E50CC333240411
:1054630080027402C0E07401120A2DD0E012559537
:105473008A088B09EA450970030255608A828B8387
:10548300A3A3E514F0A3E51512608EE50EF0A3E5E2
:105493000FF0EA2413F582EB12556BE50DF0EA24C5
:1054A30014F582EB12556BE511F0EA2417F582EB44
:1054B300125C3B64017040120E608A0E8B0FA80EC3
:1054C300A90F850882850983A3A3A3A3E0687003BA
:1054D300A3E0696022EE4F6011E508241AF582E526
:1054E3000912556BEEF0A3EF800CE5082417F58243
:1054F300E50912556BE4F012556F1255848E828FB5
:10550300837405F0A3E5107004E50C80487401254D
:105513000C12558E7A008028850A82850B83E0124F
:10552300558A850A82850B83A3E08E828F83F0E5FB
:105533000A2402F50AE50B3400F50BA30EAF830A28
:10554300EAC3950C40D2120E60EA12558A120E601D
:10555300EB8E828F83F0AA08AB09120B247403022B
:105563004630EE240CF582EF12557C2212262B12C4
:10557300557C22EE240BF582EF3400F58322900351
:1055830034E0FEA3E0FF228E828F83F0A3AE82AFCE
:10559300832212366D120ECC22C082C083E9C3333C
:1055A300FCE433FDEA2CFAEB3DFBEA24FEF582EB47
:1055B30034FF124CB702320274F21202F889098ADC
:1055C3000A125136400479008040750800800205B4
:1055D30008E508C39509502AE508C333F8E433F90D
:1055E300EE28F582EF39F583C082C083120E608AFC
:1055F3000C8B0DD083D082E0650C7004A3E0650DA5
:1056030070CDE50A650870BE7901024AB474F012E0
:1056130002F874F31208458A088B098C0A8D0B89EA
:105623000C750D00120EE4E979006003025712AA0B
:1056330008AB09120CE6A90C120CDA8A0E8B0FAE1A
:105643000EAF0FEE4F70030257108E828F83A3A30A
:10565300A3A3A3A3E0A2E24003025710120E60EA41
:10566300650A7003EB650B7011780D12079DE4F565
:105673000EF50F780E1207998044AA0AAB0B120A93
:10568300DCE9640170688518828519837404F074F9
:1056930001120A2D124FE5851882851983AA82AB60
:1056A30083120A9AE964017045750D01780D12079A
:1056B3009DE4F50EF50F780E120799750D00780D20
:1056C30012079D780D12079D7408120A2D85820E0C
:1056D30085830F780E120799902148E493F9AC0A59
:1056E300AD0BAA08AB09120C7474071207E18E8282
:1056F3008F83A3A3A3A3A3A3E0A2E1400D8E828F74
:1057030083A3A3A3A3A3A3C2E2F0750D01A90D0272
:105713003FB374F61202F8E9FE7900120CE6EEF9D3
:10572300120CDA8A088B09A808A909E8496006124D
:1057330065C9F9800279040235EB74F61202F87E2A
:105743000790035CE070341257838A088B09A8081A
:10575300A909E8496025900361E06401888289838F
:10576300A3A3700B12578A888289835001A3A3E0F5
:10577300F9120FECE9FEEE70027E07EEF90235EB4B
:10578300124FD6120FCE22E0FA88828983A3E0C398
:105793009A2274EE1202F8EAFEEBFF890A8C0C8D52
:1057A3000B7412120A2D1233C512585F12513D5059
:1057B30051890E750F007403780E12092374322574
:1057C3000EF582740B350FF583E0F8E50CC39850A2
:1057D3002DE50B60247511007403781012092374EE
:1057E3002C2510F8740B3511F988828983A3A3A3A0
:1057F300A3A3A3E50C125869F07900024D7C790349
:1058030080F979007AFE7BFF12585FE4936510708C
:1058130004790280E6E50B60E0890E750F007403DE
:10582300780E120923742C250EF8740B350FF988A2
:10583300828983A3EEF0A3EF125869125003E50C9B
:10584300123F7D74FF126448E50AF0900366E08816
:10585300828983A3A3A3A3A3A3A3809C120CD4E94B
:10586300F51090213B2212658BA3E508F0A3E5090F
:105873002274F61202F8ECFF120CD490213B125161
:105883003D502789087509007403780812092374A9
:10589300311258B3740B1260FAE0F8EFC398500654
:1058A300EFF0790080067903800279040235EBEA90
:1058B3002508F5822274F41202F8EAFEEBFF120CBB
:1058C300D4E9F50A90213B12513D5019750B007430
:1058D30003780A120923742F250AF582740B350BFA
:1058E300124CB7801890034B12483F600CEEFAEF4E
:1058F300FB123ABB121D4780047AFE7BFF02378CF2
:1059030074F61202F88A828B83A3A3A3A3A3E4F001
:10591300F8800108902141E493F9E8C399501E8867
:10592300081259618C828D83A3A3A3A3A3A3A3A36A
:10593300E06970DFECFAEDFB120E06801EE493685B
:1059430070198C828D83A3A3A3A3A3A3A3A3A3747E
:1059530006F07A008C828D83125A8C0235EB74B474
:105963002508F582740B125C47F92274F41202F8CD
:10597300EAFEEBFF8E828F83A3A3E014125AA3A344
:10598300E0F9120DE28A088B09EA45097003025A0D
:10599300648E828F83A3A3E070358A828B83A3A353
:1059A300A3A3A3A3A3A3A3E064028A828B83A3A3D9
:1059B300A3A3A3A3A3A3A360107406F07AF085089E
:1059C300828B83125A8C025A647406F0025A648ED4
:1059D300828F83A3A3A3A3A3A3E060738E828F8389
:1059E300A3A3A3A3E0607AEE2403F582EF125A6720
:1059F300706F900355125A6D125AA3E0141260850A
:105A0300E06403705C8E828F83A3A3A3A3E0700D75
:105A1300AC08AD09EEFAEFFB120CAA80448A828B24
:105A230083A3A3A3A3A3A3A3A3A37404F01214188F
:105A3300EA540F04850882850983A3A3A3A3F0A3D3
:105A4300E4F07A20FB125A837017125A7680128A76
:105A5300828B83A3A3A3A3A3A3A3A3A3E064036051
:105A6300AF02378C125C4714F022E08E828F83A33F
:105A7300A3A3227A207B009003C2E0F912145A22D6
:105A83001260A18B09EA450922E0240C125A98E01E
:105A9300F9120D2222F8A3E03400F98882898322C7
:105AA300125AA8A3221235C3A3A3A32274F6120287
:105AB300F879007E0080258E087509007403780844
:105AC300120923746C2508FA740B3509FB8A828B3F
:105AD30083A3A3E06005120CB079010E902141E489
:105AE30093F8EEC39840D0E9A2E07A407B0090039C
:105AF300C2E0F950151215688B09EA4509700E7C4E
:105B0300647D007A40123DCE80031215620235EBAC
:105B130074F41202F8ECFEEDFF75086C75090B7C4A
:105B2300008045850882850983A3A3A3A3A3A3A318
:105B3300E0F8EA2412F582EB125C3B68701F8508DB
