:020000040000FA
:06000000020B7D0201E984
:03002B000209B215
:0300330002020CBA
:0300530002011A8D
:03007B0002075128
:1000830002017E0101FF01010503010F10FEFFE9DB
:1000930013E913E913E913A5129F12E913DC2000F6
:1000A300000000A021000000000C0000000C000173
:1000B300FFFF010200910500000004066400020234
:1000C30000080000050207051E02051E020A0A03B6
:1000D300B80B02803E0102FFFF1496511800020282
:1000E3000600035F005F00300058000000000000BE
:1000F30000000000000000000000000000000000FD
:1001030000000000000000000000007105C605C6E5
:1001130005C605C605CE05C0E074F2120512A2AFEE
:10012300E433FED2AFE5A7FFE5A1F5085F54106005
:1001330006121AEB75A1EFE5085F54086008121A5E
:10014300F175A1F7802BEFA2E0C0D0E508A2E09201
:10015300F0120AF0158182F05017906198E0F89040
:1001630008DCE0C398A2D265D0335002E8F075A151
:10017300FEEEA2E092AF7F010205CEC0E074F21260
:100183000512A2AFE433FED2AF9061A4E0F8759BF1
:1001930000E59158540860087591F7121B39802ABD
:1001A300E59158541060087591EF121B3F801BE8CE
:1001B300A2E0C0D0E591A2E092F0120AF01581828C
:1001C300F05007E0C2E0F0121C839061A3E0F8E571
:1001D300E9585404600E121C5975E9FB906193E0D1
:1001E300A2E640F2808BC0E074F2120512A2AFE4E3
:1001F30033FED2AF9061A5E0F8E5BF585404600622
:1002030075BFFB121C9B020174C0E074F11205124E
:10021300E59DA2E650FA906206E0FAA2E25035A804
:100223002CE890620BF0F508852D09740478081208
:100233000B9CE508906207F0852C08852D0974094D
:100243007808120B9CE508543E906209F090620115
:10025300E0D2E0F07829EA46F6906202E0F508750C
:10026300090074047808120B037829E50846F60898
:10027300E50946F6906204E0F5087509007409780B
:1002830008120B03782AE50946F6EAA2E050037543
:100293002B0174065A6003752B00E58BA2E550060B
:1002A300758BDF752B00121D8B758B00C2E87F02E7
:1002B3000205CEC3E498F8E499F91202F78026C345
:1002C300E49AFAE49BFBE920E7E91202F7E498F8E1
:1002D300E499F922C3E498F8E499F91202F7E4984F
:1002E300F8E499F9C3E49AFAE49BFB22EB20E7CF05
:1002F300E920E7E0B90010BB0008E88AF084F8AA17
:10030300F022E4FBC8FA22EB70227B10C833C8C981
:1003130033C9335007C39AC3DBF280069A50012ACC
:10032300DBEAC833F4C8C933F4C9FA2275F008E428
:10033300C833C8C933C933C99AC99B5004C92AC928
:100343003BD5F0ECFBC833F4C8E4C9FA220808082B
:10035300EAC0E0EBC0E086F0E7A4FA180986F0E70C
:10036300A42AFA180986F0E7A42AFA180986F0E7FE
:10037300A42AFA1986F0E7A4FBE5F02AFA190886FD
:10038300F0E7A42BFBE5F03AFA190886F0E7A42B73
:10039300FBE5F03AFA18180986F0E7A4C5F02BFB41
:1003A300E43AFA1908E7C5F0C6A426F6E5F03BFBE4
:1003B300E43AFA1886F0E7A4F6E5F00826F6E43BFB
:1003C30008F6E43A08F6D0E0FBD0E0FA22E4CFC026
:1003D300E0E4CEC0E0E4CDC0E0E4CCC0E075F020C2
:1003E300C3E633F608E633F608E633F608E633F6F3
:1003F300181818EC33FCED33FDEE33FEEF33FFC377
:10040300EC9709ED9709EE9709EF97191919400F22
:10041300FFEC97FC09ED97FD09EE97FE191906D538
:10042300F0BEECF709EDF709EEF709EFF719191923
:10043300D0E0FCD0E0FDD0E0FED0E0FF222518C5DF
:1004430082C0E0E51934FFC583C0E0E518C3958297
:1004530024F810AF088583198582188008858319CD
:10046300858218D2AFCEF0A3E520F0A37808E60882
:10047300F0A3DEFAEFF0A3E58124FAF8E608F0A38F
:10048300E608F0A3E608F0A30808E608F0A3E608E8
:10049300F0A315811581D0E0FED0E0F81581158118
:1004A3001581E8C0E0EEC0E022120BDFB9000302C1
:1004B30004FCE47921780DB800028004F709D8FC24
:1004C300E490030178CF790C8002F0A3D8FCD9FA29
:1004D300900ECFAA82AB8390008678957901801520
:1004E300E493A3AC82AD838A828B83F0A3AA82AB0D
:1004F300838C828D83D8E9D9E77582BD7583E274D5
:100503000312092A7582E375831F740012092AC036
:10051300D02518C582C0E0E51934FFC583C0E0E5E6
:1005230018C3958224F310AF088583198582188038
:1005330008858319858218D2AFC8F0A3E9F0A3EA2E
:10054300F0A3EBF0A37908E709F0A3D8FAECF0A342
:10055300EDF0A3EEF0A3EFF0A3D0E0F0A3D0E0F032
:10056300A3D0E0F0A3E520F0A3E5F0F0A32212016D
:100573000002020000205104A81609000102030131
:10058300090243000201008019090400000102026C
:1005930001000524001001042402020524060001C1
:1005A30005240100010705820340004009040100FE
:1005B300020A000000070584024000000705040248
:1005C3004000008C050000AF0500008519838518E5
:1005D30082E0C0E0A3E0F9A3E0FAA3E0FBA378087C
:1005E300E0F608A3DFFAE0FCA3E0FDA3E0FEA3E04E
:1005F300FFA3E0C0E0A3E0C0E0A3E0F5D0A3E0F5F3
:1006030020A3E0A3F5F010AF088583198582188035
:1006130008858319858218D2AFD082D083D0E0F8C1
:10062300D0E0320E0075F0108E218F228582268550
:100633008325851882851983E0CEA3E0CF852682A2
:10064300852583EBC9EAC8EDCBECCAC3E833C8E917
:1006530033C9EA33CAEB33CBC3EA9EF524EB9FF5E8
:1006630023B35004AB23AA24EC33CCED33CDD5F024
:10067300DAAE21AF2222D083D082ECC0E0EDC0E01D
:10068300E493A3FCE493A3FDED4C600D120794ECFB
:1006930024FFFCED34FFFD80EFE493A3FCE493A37C
:1006A300FDED4C600D120835EC24FFFCED34FFFD2D
:1006B30080EFD0E0FDD0E0FCE493A3C0E0E493C07E
:1006C300E022D083D082E9C0E0E493A3C386F0C5DF
:1006D300F095F0F908E493A386F0C5F095F0700B5C
:1006E300E493A3C3994005E9048002A3E475F002EF
:1006F300A42582F582E5F03583F583D0E0F9E49310
:10070300A3C0E0E493C0E022851983851882E0A3A7
:10071300FEE0A3F5207808E0A3F608DFFAE0A3FFE4
:10072300E0A3C0E0E0A3C0E0E0A3C0E0E0A3C0E03A
:10073300E0A3C0E010AF088582188583198008857F
:100743008218858319D2AFD083D082020930C0E0EA
:1007530074F2120512A2AFE433FED2AFE58AA2E22D
:10076300500790069EE0D2E0F0E58AA2E35007909E
:10077300069EE0D2E1F0758A00C2EB7A017B00901D
:10078300069AE0F91215DBEEA2E092AF7F010205B3
:10079300CEC0E0C3E49396087401939618400FE427
:1007A3009366700808740193661870007019A3A308
:1007B300C3E49396087401939618A3A3400DD0E065
:1007C300D0E0D0E00206B5A3A3A3A3A3A3D0E02265
:1007D300740480087403800474028000CCC0E0EDCC
:1007E300C0E0E518C39CCCAD1950011D10AF068CB9
:1007F300188D1980068C188D19D2AF1208ACD0E071
:10080300FDD0E0FC2274028000CCC0E0EDC0E0E546
:1008130018C39CCCAD1950011D10AF068C188D194F
:1008230080068C188D19D2AF12088AD0E0FDD0E073
:10083300FC22C0E0C0F088F0E493667008087401FD
:100843009366187000A8F0A3A3700BD0F0D0E0D08B
:10085300E0D0E00206B5A3A3D0F0D0E022D083D04D
:1008630082CCC0E0E493A360061208CD1470FAE4CE
:1008730093A360061209FC1470FAD0E0FCE493A37E
:10088300C0E0E493C0E022CAC0E0E493A3C582CCF5
:10089300C582C583CDC583F0A3C582CCC582C5837C
:1008A300CDC583DAE5D0E0CA22CAC0E0E0A3C582A1
:1008B300CCC582C583CDC583F0A3C582CCC582C513
:1008C30083CDC583DAE6D0E0CA22C0E0E493A3D3A4
:1008D3009C5010E493A3C39C400AD0E0D0E0D0E046
:1008E30002087DA3A3A3D0E022C008C3E096F508C5
:1008F30008A3E096420808A3E096420808A3E096FE
:1009030045087001D3D00822700908080822601630
:10091300181818C6C333C608C633C608C633C60874
:10092300C633C6D5E0EA22C09FF59FE473D09F2269
:10093300D083D082C09FE493C0E0740193C0E0747D
:100943000293F59F227404800A7403800674028064
:10095300027401C0E0F404120963D0E0120BBA225E
:100963002518F58210AF08F518400215198008F50F
:100973001840021519D2AF85198322C0D02518104B
:10098300AF08F518500205198008F518500205192B
:10099300D2AFD0D022BB0102E722C082C0838982BA
:1009A3008A83BB0003E08002E493D083D08222C019
:1009B300E0C0D0E8C0E0E5A8D2AFC2C7A2E792AFDB
:1009C300D0E0F8D0D0D0E0326016080808C6C313D0
:1009D300C618C613C618C613C618C613C6D5E0EA8A
:1009E30022C3E0C696F608A3E0C696F608A3E0C6BF
:1009F30096F608A3E0C696F622C0E0E493A36C70D3
:100A030009D0E0D0E0D0E002087DA3A3D0E022BB70
:100A1300000EC082C0838A838982F0D083D0822271
:100A2300BB0101F722251810AF08F518400215196C
:100A33008008F51840021519D2AF22E76670100836
:100A430009E766700A0809E76670040809E7662281
:100A5300C3E09608A3E09608A3E09608A3E096A255
:100A6300D265D03322E066701008A3E066700A08EE
:100A7300A3E066700408A3E06622C3E096F008A32F
:100A8300E096F008A3E096F008A3E096F022E026B3
:100A9300F608A3E036F608A3E036F608A3E036F638
:100AA30022E627F60809E637F60809E637F60809C5
:100AB300E637F622E657F60809E657F60809E65739
:100AC300F60809E657F622E056F008A3E056F008C8
:100AD300A3E056F008A3E056F022E647F60809E63D
:100AE30047F60809E647F60809E647F622C0E0E8B4
:100AF300C0E0E58124FCF8E6A2E7D0E0F8D0E022EC
:100B0300700422600D18C6C333C608C633C6D5E0C9
:100B1300F41822E026F008A3E036F008A3E036F04C
:100B230008A3E036F022E056F608A3E056F608A341
:100B3300E056F608A3E056F622E4C396F608E496D8
:100B4300F608E496F608E496F622C6F4C608C6F458
:100B5300C608C6F4C608C6F4C622C3E09608A3E0D6
:100B63009608A3E09608A3E09622C3E7960809E750
:100B7300960809E7960809E7962275D00075814023
:100B8300751801751903000204ACE0F608A3E0F63A
:100B930008A3E0F608A3E0F622600C08C6C313C658
:100BA30018C613C6D5E0F422E6F008A3E6F008A3BE
:100BB300E6F008A3E6F022CAC0E0E6F0A308DAFAFA
:100BC300D0E0FA22E0FAA3E0FBA3E0FCA3E0FD22DD
:100BD300EAF0A3EBF0A3ECF0A3EDF022E5C754F8A1
:100BE3004401F5C77901222518F582E43519F58307
:100BF30022C2AF75D69F0200002212093341E402DC
:100C0300120933EE23001209330024001209335270
:100C13002400120933B324001209333D25001209BD
:100C230033E125001209333526001209334E26001D
:100C3300120933742600120933AF2600120933F365
:100C430026001209331A27001209336B27001209F1
:100C5300331B2800120933D328001209339B2900C0
:100C63001209335B2A001209339F2A00120933C485
:100C73002A00120933072B00120933542B001209DF
:100C830033AC2C00120933322D00120933502D00DE
:100C93001209337A2D00120933942D00120933A35C
:100CA3002D00120933AE2D001209336E2E001209E6
:100CB30033C72E00120933892F00120933912F00F5
:100CC300120933553000120933C13000120933ECD5
:100CD300310012093311320012093387320012092D
:100CE30033193300120933D93300120933F83300AF
:100CF30012093307350012093319350012093389F4
:100D03003500120933B33500120933413600120995
:100D1300337A3600120933C63600120933E237003C
:100D23001209332B3A00120933363A0012093341C0
:100D33003A001209334C3A00120933563A001209A9
:100D430033613A001209337B3A00120933853A00C2
:100D53001209338F3A001209339A3A00120933C247
:100D63003A001209331D3B00120933273B001209D5
:100D7300334B3B001209336F3B00120933CD3B0069
:100D8300120933113C001209332D3C00120933A41C
:100D93003C00120933DC3C00120933283D001209E0
:100DA30033853D001209333F3E00120933234000CF
:100DB3001209337C4000120933AC4100120933D2CB
:100DC30041001209335B4300120933D7460012096D
:100DD30033A94800120933724A001209331F4B002A
:100DE3001209338A4C00120933294D001209336E5C
:100DF3004D00120933D84D00120933E74D00120993
:100E0300336E50001209332052001209338D520001
:100E13001209336C5300120933855400120933024B
:100E2300560012093321560012093376560012096F
:100E3300337B5700120933A35700120933FB5700C2
:100E4300120933DA58001209331E590012093369A3
:100E53005900120933D45900120933155B001209E2
:100E630033795B00120933C75C00120933275F0033
:100E7300120933585F0012093310610012093365F8
:100E83006100120933696200120933066300120913
:100E9300335F6300120933126400120933B4640030
:100EA300120933546500120933F96500120933C678
:100EB30080011209330581011209334C83011209A0
:100EC30033968301120933B1840112093319850161
:100ED3001209334E8501120933C2860112093345C3
:100EE30089011209336E8A01120933048B01120935
:100EF300330C9401120933A1940112093388970129
:100F03001209337B9801120933E998011209332F2F
:100F13009A01120933119B01120933F69C0112093C
:100F230033079F01120933719F0112093343A00153
:100F330012093371A0011209332EA10112093305DD
:100F4300A201120933CCA20112093370A3011209C1
:100F53003399A301120933BBA30112093311A6016B
:100F6300120933E9A6011209332DA701120933959A
:100F7300A7011209334DA8011209337FA8011209F1
:100F830033C3A801120933F9A80112093345A90192
:100F93001209339AA9011209339FA901120933F2E5
:100FA300A90112093317AA0112093326AB01120949
:100FB300338AAB01120933FAAB0112093386AC0150
:100FC30012093353AF0112093337B001120933BA8F
:100FD300B101120933F0B3011209339EB4011209AE
:100FE300334EB5011209338FB70112093332B801F9
:100FF30012093379B80112093325BA0112093339B9
:10100300BA0112093343BA011209336BBA01120947
:101013003377BA0112093396BA01120933B6BC0108
:1010230012093305BE0112093349BE01120933F116
:10103300BE01120933D4BF011209337FC001120963
:1010430033CBC101120933C9C2011209336FC30182
:10105300120933FFC30112093316C4011209334DB8
:10106300C40112093357C40112093362C4011209BE
:101073003380C401120933C4C40112093321C501E9
:1010830012093346C50112093360C501120933EC55
:10109300C50112093309C70112093376C7011209C1
:1010A300335DC80112093384C801120933F8C8013A
:1010B30012093373C90112093377CA011209336D57
:1010C300CB011209331CCC011209332FCD011209B4
:1010D30033CBCD0112093358CE0112093336CF0178
:1010E3001209336ECF01120933C6CF011209338FB0
:1010F300D001120933B0D00112093337D1011209DB
:10110300335BD1011209337DD101120933C6D101F9
:10111300120933DCD301120933C3D4011209337426
:10112300D501120933AAD701120933FAD7011209DB
:10113300333AD8011209337CD801120933D8D801C4
:1011430012093306D9011209332AD9011209337D51
:10115300D901120933ABD901120933E4D9011209B8
:101163003339DA011209339FDA01120933F3DB0150
:1011730012093316DE0112093383DE01120933AC7F
:10118300DE0112093337DF011209339EDF01120931
:1011930033E9DF011209330DE00112093331E001B4
:1011A3001209338CE001120933A7E00112093360FD
:1011B300E10112093345F10312093384F1031209E2
:1011C30033788002120933BE80021209339E8102F2
:1011D300120933A08202120933A383021209332FA7
:1011E30085021209338D85021209334A86021209D8
:1011F30033688702120933D987021209331588022B
:101203001209336388021209336D8802120933B15C
:1012130088021209330D8902120933A889021209BF
:1012230033258A02120933F48A021209338D8B02A1
:10123300120933AD8B02120933E38B021209331403
:101243008C02120933D58C02120933E58C02120980
:1012530033398D02120933548D02120933668D021C
:101263001209336F8D02120933C98D021209332516
:101273008E02120933718E021209338C8E02120907
:1012830033BD8E02120933DA8E02120933E68E025F
:101293001209335A9002120933739002120933DA96
:1012A3009002120933ED9002120933FB90021209E6
:1012B30033AF9102120933939202120933999302C5
:1012C3001209332394021209332D94021209339A1B
:1012D3009402120933B19402120933E394021209FE
:1012E300331C9502120933469502120933A795025E
:1012F300120933C79502120933E595021209332BFC
:1013030096021209335197021209339E970212096A
:1013130033CD97021209334398021209336B9802B3
:10132300120933A49802120933B298021209330A3C
:101333009902120933599902120933989902120931
:1013430033C89902120933F49902120933FF99023F
:101353001209331D9A02120933DF9A02120933E983
:101363009A021209332A9B021209337F9B02120944
:1013730033939B02120933A19C02120933B49C02DA
:10138300120933C99C021209336B9D02120933EE11
:101393009D02120933AC9E02120933B79E02120951
:1013A30033E39F02120933FF9F0212093351A00254
:1013B30012093390A002120933A5A00212093307C0
:1013C300A10212093396A102120933E1A102120903
:1013D3003332A402120933B0A40212093325A50241
:1013E30012093347A7021209335FA70212093362B6
:1013F300A7021209336EA70212093382A702120948
:10140300338AA702120933BDA7021209336DA8025A
:10141300120933E3A80212093356A9021209330A47
:10142300AA02120933BFAA02120933DEAA02120961
:101433003384AB02120933AFAB02120933B2AB02EE
:101443001209331CAC0212093344AD021209331CD6
:10145300AE02120933A7AE02120933C0AF0212095A
:10146300337DB002120933B6B002120933E7B0027A
:10147300120933A5B102120933D5B102120933B0EF
:10148300B20212093349B302120933D4B302120967
:101493003385B40212093308B5021209333AB5028F
:1014A3001209337BB502120933EEF40212093353E6
:1014B300F50212093390F502120933DFF50212091E
:1014C30033F5F702120933D8F90212093342FD0248
:1014D3001209337DFD021209339FFD021209330203
:1014E300FE0212093336FE0212093359FE021209B3
:1014F3003386FE02120933E2FE02120933278D03FB
:10150300120933A58D03120933DB8D031209334707
:101513008E03120933BA8F03120933D68F031209CC
:10152300331B9003120933A9900312093302910369
:101533001209332F920312093357DA021209339E29
:1015430093031209330A94031209336B94031209A8
:1015530033AC94031209335995031209336B960381
:10156300120933969603120933E1960312093328BD
:101573009703120933BA97031209337598031209B3
:1015830033B6B00312093302B10312093370B10346
:1015930012093391B10312093323E4021209334AC6
:1015A300B2031209339DB203120933C6B2031209FF
:1015B300332DB303120933BEB30312093300B4034B
:1015C3001209334AB403120933A9B403120933D5F8
:1015D300B40312093366B503120933A5B50312091F
:1015E30033E4B50312093319B6031209332BB603D7
:1015F3001209333DB6031209335CB603120933658E
:10160300B6031209331BB7031209335BB70312097D
:101613003389EC031209338BE003120933C1E0036E
:101623001209330AE1031209335AE203120933455B
:101633006600120933846700120933C06700120978
:10164300337F6900120933A869001209333B6C0028
:101653001209337F6C00120933086E00120933A09C
:101663006E00120933086F00120933A96F001209C3
:1016730033EB6F001209332B7000120933B671007C
:101683001209332673001209334B7500120933799B
:101693007500120933A07500120933A975001209E8
:1016A300333076001209334E79001209338AF2037C
:1016B300120933A0F203120933AFF0031209330EF8
:1016C300D00312093321D003120933BED003120908
:1016D30033F9D00312093314D10312093339D10377
:1016E3001209337ED103120933AFD103120933E058
:1016F300D10312093366D3031209332EFF021209F1
:101703003364FF0212093380FF02120933C2FF025E
:10171300120933D2FF02120933DCFF02120933F735
:10172300C00312093395C1031209338AC303120993
:1017330033B4C40312093345C503120933008003CC
:101743001209335580031209333E8103120933D73B
:1017530081031209332182031209337E82031209A2
:1017630033928203120933C48203120933C28303FF
:1017730012093306840312093321840312093370D7
:1017830084031209338684031209339384031209F1
:1017930033C78403120933E08403120933AA850390
:1017A3001209330486031209335286031209337470
:1017B3008603120933EB88031209332089031209C4
:1017C30033B08903120933258A031209332A8A03A2
:1017D300120933668A03120933BC8A031209338060
:1017E3008B03120933A58B03120933AF8B03120941
:1017F30033B28B031209333B8C03120933568C0328
:10180300120933698C03120933A48C03120933A719
:101813008C03120933B28C03120933EE8C031209C1
:101823003362F0031209337AF00312093372A90306
:10183300120933C1A90312093363AB031209331F1E
:10184300AD0312093367AD031209334FAE03120917
:101853003380AF03120933A2AF03120933FEAF0380
:1018630012093382B0031209339AE101120933BB1F
:10187300E10112093338E201120933BDE201120911
:101883003339E301120933A2E301120933EEE30111
:101893001209336DE401120933FFE4011209338F96
:1018A300E501120933D1E5011209331AEA011209DC
:1018B300339AEB0112093370EC011209339FEC01E7
:1018C3001209338AEE011209330AF101120933C3F3
:1018D300F101120933E0F20112093337F60112095B
:1018E3003347F601120933A8F70112093334F8011B
:1018F30012093345F901120933DEF901120933E103
:10190300FA0112093363FB0112093368E402120975
:101913003322E50212093394E50212093328E60261
:101923001209332FE7021209339FE70212093358D2
:10193300EA021209332FEB021209339CEB0212095C
:101943003319ED02120933E3ED021209334EEE02AD
:101953001209334EEF0212093328F1021209333B05
:10196300F202120933D4F2021209339AF302120972
:10197300336AC503120933BEC50312093316C603FE
:1019830012093361C603120933C3C6031209332F85
:10199300C703120933E2C70312093323C803120929
:1019A3003339C80312093395C803120933D3C80363
:1019B300120933C2E403120933F3E403120933AD0A
:1019C300E50312093313E60312093336E30312095D
:1019D300333DF2031209334EF2031209335CED0374
:1019E3001209336AED03120933ED7F001209334FF5
:1019F300EF031209335FEF0312093377EF03120981
:101A030033D8EF0312093387EB031209330CEC03CA
:101A130012093370EC03120933B0EE03120933B326
:101A2300EE03120933ECEE031209333DEF031209FF
:101A33003304C90312093312C9031209338CC903CE
:101A430012093370CA0312093329CC03120933680C
:101A5300F2031209333DD903120933DBD903120907
:101A63003322DA0312093365DA0312093328DB035D
:101A730012093354DB031209338BDB031209339E40
:101A8300DB03120933B3DB0312093384B7031209EF
:101A930033D9B703120933D5B90312093307BA038C
:101AA30012093329BA0312093342BA031209335B09
:101AB300BA0312093365BB0312093300BC031209CD
:101AC300338C7E00120933B07E00120933C97E00C5
:101AD300120933FC7E001209332D7F001209335B98
:101AE3007F00120933BD7F00120933CC7F00120936
:101AF30033D67F00120933E37F00120933ADD603D7
:101B0300120933D3D60312093310D7031209331F33
:101B1300D7031209333ED703120933A6D703120999
:101B230033AFD7031209330ED80312093332D80364
:101B3300120933F1D803120933FED8031209330F04
:101B4300D903120933D4F103120933F1F103120952
:101B53003377BC03120933D7BD03120933E4BD0342
:101B6300120933F7BD0312093316BE031209332CCE
:101B7300BE0312093340BE03120933B5BE03120973
:101B8300331ABF03120933CABF031209339FC003B9
:101B9300120933AFC003120933BEC003120933174E
:101BA300EE031209333BEE0312093363EE0312090A
:101BB300338BEE03120933C8DB03120933EFDB0364
:101BC30012093310DC0312093375DC031209332EB7
:101BD300DE0312093347DE0312093353DE0312090E
:101BE3003367DE0312093385DE031209338FDE0305
:101BF30012093399DE03120933ACDE03120933FFF2
:101C0300DE0312093338DF0312093367DF031209D6
:101C130033B5DF0312093304E0031209331FE00372
:101C230012093329E0031209333AE003120933801E
:101C3300E003120933AFFF01120933EC98031209D1
:101C43003316990312093332990312093345990361
:101C53001209335B9903120933B89903120933EB61
:101C63009903120933279E031209334D9F03120967
:101C730033809F03120933CC9F03120933F8A00367
:101C830012093320A10312093335A1031209334585
:101C9300A10312093389A103120933EAA10312092B
:101CA30033FAA10312093335E80312093350E80369
:101CB30012093379E80312093393E803120933B89D
:101CC300E803120933D7E803120933EFE8031209D3
:101CD300331DE90312093337E9031209338EF10384
:101CE3001209338ECC0312093395CC03120933A1A5
:101CF300CD03120933D1CD03120933F7CD031209F2
:101D0300331ACE031209333CCE0312093376CE03C2
:101D1300120933DCCE0312093315CF0312093361E1
:101D2300CF031209338ECF03120933AECF03120947
:101D3300337BEA0312093393EA0312093381EB037A
:101D430012093384EB0312093368E903120933DA06
:101D5300E90312093318EA0312093359EA03120992
:101D630033E2EF0312093310F00312093345F00392
:101D730012093347F00312093349F0031209335AA6
:101D8300F0031209335CF0031209335FF003120905
:101D930033A3E60312093311E70312093333E703CD
:101DA3001209336BE703120933A1E70312093373F3
:101DB300D303120933B6D303120933D4D30312095D
:101DC3003305D6031209333DD60312093361D60313
:101DD300120933FAF00312093328A203120933EF6D
:101DE300A203120933E0A303120933F1A303120977
:101DF3003302A4031209334EA40312093342A60388
:101E03001209339FA703120933CFA7031209339B88
:101E1300A803120933F8A803120933FBFB011209C3
:101E2300331AFC0112093369FC0112093385FC01E1
:101E3300120933B6FC01120933C3FC01120933D072
:101E4300FC01120933BCFD01120933FAFD01120929
:101E5300330AFF0112093315FF0112093327FF016A
:101E630012093330FF011209333AFF01120933CF4C
:101E73007900120933147E00120933227E001209FD
:101E83003310F203120933B9D70212093382D6028F
:101E9300120933D6D5021209331CD402120933CCEA
:101EA300D10212093353D102120933FAD0021209B3
:101EB300338AD00212093361D00212093341CE02B0
:101EC3001209330DCE02120933DACD02120933BEE1
:101ED300CD02120933D7CC021209338FCC02120977
:101EE30033DACA021209335ACA0212093357CA0231
:101EF30012093358C90212093326C902120933637E
:101F0300C8021209338EC6021209331FC602120910
:101F130033F1C502120933EFE2021209334CE20234
:101F2300120933FFE002120933AADE021209334019
:101F3300DE02120933EEC502120933DBC5021209B0
:101F43003386C502120933F8DD0212093375C5025F
:101F530012093367C40212093331C402120933DF91
:101F6300C3021209336ADD0212093341B2031209B3
:101F73003380C3021209334FC30212093317C0025D
:101F8300120933D7BF02120933CBBF021209332B15
:101F9300BF021209336BBE02120933EDBB021209F1
:101FA300337EB9021209333CB90212093310B80265
:101FB300120933C5B70212093304B702120933D722
:101FC300B6021209331AB602120933B0B502120966
:101FD30033EAB5021209335DDD021209334193037B
:101FE30000000080FBE473000136360101000102AA
:101FF30001000103010001040106060502000007B8
:102003000100340801000F090401010D0100FF0E56
:1020130008000017020000190100FF1A0100011B4C
:102023000100FE1C0100081D0200001F0100012029
:10203300010001210200002301000F2402000026F9
:1020430001000127010008280200FF2A0100072BD5
:102053000102402C0100002D0100012E0100012F7F
:102063000100FF30010B1C310800003A0100083B5E
:1020730001000F2F01000003027102300160021101
:102083000270020102020202028002100261023A9D
:1020930000410063027302720262024302000213F0
:1020A30002380000020002040212020002000200D1
:1020B30002000204020402370037003C024402001B
:1020C30002390000020002650200023502810200AB
:1020D30002050282028302000203007100300160E4
:1020E30000110070003102200350048000100061D1
:1020F30000000014006300730072006200430000DC
:10210300001300060000000000040012000000009D
:10211300000000000004000400370037003C0244C4
:102123000000000000000000006500000035008191
:102133000000000500000083000000030471040296
:102143000460041104700402040204010402041074
:1021530004610400041404630473047204620443FA
:10216300040004130406040004000404041204001D
:10217300040004000400045104640000040004008B
:10218300044404000400040004000465040004354E
:102193000481046400050400048304000401037142
:1021A30003010301030103010301032203020301EA
:1021B30003100300030003000300030003000300F4
:1021C3000342030003240306030003000304031272
:1021D300032503230325032303040304030003004C
:1021E30003000344030003000323030003650321E7
:1021F300003503810300030503000300030003010B
:10220300017101010101011101010131010101010B
:10221300018001100161013B00140063017301722D
:1022230001620143010001130106013D0135000470
:102233000112010001000100010001040104013346
:102243000133013C01440132013600000100016504
:1022530001000135008101000105018201830100B4
:102263000136000100060000000F0000000000001E
:102273000000000000000003FFFF00000403FFFF55
:102283000000FFFF0FF4010005C404032000010058
:10229300000B000000000000000003010F000029F4
:1022A300191300BD18010029190200871803008DB6
:1022B3001804009318050099180600A518FFFF00DD
:1022C3000001F70E06270F08210F0B330F10730EB3
:1022D30002FD0E05150F07030F0CD90E0DEB0EFFB4
:1022E300000003EAF5E5D5D5C5B5A59595858575B2
:1022F3007565655555454535352525151505FF1274
:102303002F1305130B1329131D13171335133B1326
:1023130041134D131113F912F31200160F00000BA2
:10232300150B020002220F32000006E913FB130112
:1023330014C9120714C312CF120312FD1139123F2D
:10234300123312EB11431461146714491455144FDB
:1023530014303016181920231A1C1E300C0E020BD1
:10236300040B0A0708000F00383C3E363B3B352B75
:10237300432C303017181921301B1D1F3000011951
:10238300161816161523030000034948424D181763
:1023930025050237140D1413141F1419142313479E
:1023A300135B1453135913020402010101010902BF
:1023B3000F121512091245120000000000001B1233
:1023C3002D1200BE040A150004007F00E8030C0070
:1023D300280000000000090308100C0A0308090084
:1023E300040001FF1E1E0C05040F08C082C0838A6F
:1023F300828B83E0D2E7F01217EB023565C082C00F
:102403008379001228BA1255D1C082C08390033455
:10241300124357D083D082C3E09CA3E09D500C129B
:102423005CA5FAA3E0122431600109023565FBEAD9
:1024330075F00BA4FAA8F075F00BEBA428FB90033E
:1024430036E02AF8A3E03B8882F583E0540F227438
:10245300F712044089081228BA122960ACF075F00B
:102463000BE9A42CF9900336E028FEA3E039FF74AE
:1024730001650860067402650870208A828B8312E6
:10248300294C12363374026508701B12280B12296B
:102493009370138E828F83E4F0800BEA2403FCEBAA
:1024A30012292E12293AEEFAEFFB120C0302359D84
:1024B30074F41204401265CC79008E828F83E0603D
:1024C30076890A890B8065E50A75F00BA4FAA8F0F2
:1024D30075F00BE50B12243E7046E50A75F00BA46C
:1024E300F8AAF075F00BE50B1229728E828F83E048
:1024F300850882850983122A54850882850983A366
:10250300123633EE2403FCEF12293712356C1250C6
:102513004BAA08AB09120C037901900334124A60E9
:10252300E50A2401F50AE50B3400F50B122813E53F
:102533000A9AE50B9B40900237DD74F5120440EADA
:10254300FEEBFF740B120BEA123571750A01EC4DA9
:10255300602BEC1265E8ED1255D112362B7901127E
:102563000C0FE5084509606F850882850983A3126E
:1025730065D67902AA08AB09120C0F805AE5084503
:1025830009602B1255D5123C9F12356D12297D70AF
:102593000CEEFAEFFB120C15E9F50A80CBEE2403DF
:1025A300FA1228B570317903EEFAEFFB80CA8E82F6
:1025B3008F83A3E064FE7003A3E0F4700BEE2403A7
:1025C3000A0A0A1228B5700CEEFAEFFB120C15E991
:1025D300F50A8003750A00A90A7F0302070B74F743
:1025E3001204409003341235ADEA4B602FEA75F0C4
:1025F3000BA4FAA8F075F00BEBA428FBEAFEEBFFA3
:102603001216239003361235AD9003361248A56097
:1026130012EEFCEFFD790012158D8007900336E46E
:10262300F0A3F002359D90033412400FC3EE98EFF0
:102633009922C082C083EC4D6005121D5B80097C2A
:10264300087D00790012158D02356574F612044079
:102653007900EA4B601878008808125918EB125C6D
:10266300A160047901780808E8C3940840EA0236B7
:102673003C74F712044074F3120A28ECFEEDFF8554
:102683001882851983E4F004120BEAEAF0A3EB1233
:102693004DD17403120BEAAC82AD83EEFAEFFB1259
:1026A3000C27EEFAEFFB120C2D02359874F7120487
:1026B3004074F3120A28ECFEEDFF85188285198316
:1026C300E4F0EAFCEBFD7403120BEA122A4D7401E9
:1026D300120BEA1236278E828F8312363374FE680A
:1026E300700374FF696004790180027900023598F0
:1026F30074F7120440EAFEEBFF12275170141227FD
:102703005C8E828F83E0F4F88A828B83E058F01228
:102713000C03A90802359D74F7120440EAFEEBFF8F
:102723007508008E828F83E06022122751701D127C
:10273300275C8A828B83E08F838E82F8E058700C4B
:10274300E0F88A828B83E048F0120C0380C4120CF9
:1027530009E9F50874016508221265E1122964127A
:1027630028A6FAA3E039FB2274F41204408A088BEA
:10277300097C007D0012280B12293A1228CB12651E
:10278300D37900850882850983A3E064FE7003A3DF
:10279300E0F460717E007F008062EEFAEF12243174
:1027A3006057EEFAEFFBEA75F00BA4FAA8F075F0A8
:1027B3000BEBA428FB900336E02AF50AA3E03BF5D4
:1027C3000B850882850983A3124D1F850A82850B19
:1027D30083A3E06A7003A3E06B701EE50A2403FA87
:1027E300E50B1228B6700AE50A2403FCE50B12294F
:1027F300371228BF79011255E71231AA122813EEB6
:102803009AEF9B40950237DDEA24030A0A0AEB227A
:102813009003341251BEC32274F31204408A088B0E
:10282300098A828B83A31265D61228BA1265D375DF
:102833000C0012280B1228B670547E007F008049CA
:10284300122898FAA3E0398A82F583E0540F6036A0
:10285300122898F50AA3E039F50BE50A2403FCE5F1
:102863000B1229413400FB121D55E96401701785D1
:102873000A82850B83A312527FA31236331228BF19
:10288300750C011255E71231AA12262940B2A90C80
:102893007F0502070BEEF8EFF9E875F00BA4F812C9
:1028A30028A622AAF075F00BE9A42AF9900336E0D2
:1028B3002822EF12298D221265E7EB221228CB1270
:1028C30055E2EEF0A3EFF022E5081265E8E50922F0
:1028D30074F5120440EAFEEBFF8E828F83A3126528
:1028E300D67C007D00EE24030A0A0AEF12293AEE91
:1028F300FAEFFB120C09E9F50A7401650A70291253
:1029030065E1122960AAF075F00BE91229728508B6
:1029130082F58312294C12297D700DE5082403FCEE
:10292300E50912292E12293A0225DA3400FDEE2494
:1029330003FAEF221229413400FB120C2722340040
:10294300FDE5082403FAE50922A3122951221229DD
:102953005522E0F8A3E0F98E828F83A32212296423
:10296300223400F583124013E875F00BA4F8221209
:1029730028ACF508A3E039F50922E8F0A3E9F0E56E
:10298300082403FAE50912298D22122993640122EE
:102993003400FB120C2DE92274F312044074E61286
:1029A3000A281265CC750C01750800750900750AB3
:1029B30000750B00851882851983E4F0EE2403FC6F
:1029C300EF3400FD7403120BEA122A4DE96401701F
:1029D30023740B120BEA12362B7401120BEA124DFD
:1029E300237003A3E069605185188285198385826A
:1029F30008858309740D120BEAE4122A54740E122B
:102A03000BEA123633740D120BEAAA82AB83120C53
:102A13004BE96401700B740D120BEA85820A8583FE
:102A23000B780A120950AC08AD09EEFAEFFB120C51
:102A33001B740212097EE9F50CEEFAEFFB120C454A
:102A4300A90C741A12097E022893122D20120C511C
:102A5300221235A812400F22C082C0837800790069
:102A63008003122B4B122813E89AE99B5029E8FAAA
:102A7300E9FBEA75F00BA4FAACF075F00BEBA42CB0
:102A8300FB900336E02AFCA3E03B8C82F583E05401
:102A93000F70CF790080027901023565C082C0834F
:102AA3009023C9124065EC75F012A4FCA8F075F0F0
:102AB30012EDA428FD79FF7A4B7B0912158D02359F
:102AC3006574F7120440E9FEEAFF7A007B007800A0
:102AD30079008028E8FCE9FDEC75F012A4FC85F090
:102AE3000875F012EDA42508122F60C39E400AE07A
:102AF300FCEFC39C400312307F122B4B122F544028
:102B0300D302359DC082C083780079008003122BE5
:102B13004B122B3F501F122F64F470F2E875F01222
:102B2300A4F8AAF075F012E9A42AF9744B28FA74F0
:102B33000939FB80047A007B000235659023C912B2
:102B43003015C3E89AE99B22E8240108E93400F927
:102B53002274F012044074F3120A288A0A8B0B8C35
:102B63000C8D0D8908EC450D6016AA0CAB0D120CEB
:102B73009F8A0E8B0FAE0EAF0FEE4F6003022C1227
:102B8300120C758A0E8B0FA80EA90FE8FEE9FFE859
:102B930049607C9023D7122C74602274036508600B
:102BA300067404650870167A047903120C6F902377
:102BB300D7122C8B40077A007B00022C719023D50F
:102BC300122C74601B74016508600674026508703A
:102BD3000F7A027901120C6F9023D5122C8B50D6E9
:102BE3008518828519837401F0120BEA12504BACDD
:102BF3000CAD0D7403120BEA122D19740B120BEAB0
:102C0300123579123A13E41250331211438004EE51
:102C13004F604A780074FF2508C394045002780477
:102C23008E828F8312504B8E828F83A3A3A3A3E53F
:102C330008F0E88E828F83A3A3A3A3A31250531299
:102C430002EF12302C8E828F83A3A3A3A3A3A3A38B
:102C5300F0123023120BC71255CB120BD3122C795F
:102C63004005900ED3E4F012101DEEFAEFFB024084
:102C73001912516D49227A047900120C6F9023C9FD
:102C8300125C87EA98EB9922122CA4758323758230
:102C9300C9E493C398F8A3E49399F9C3EA98EB9929
:102CA30022E493F8740193F92274F212044074F34A
:102CB300120A288A088B09ECFEEDFF750A00EEFA6A
:102CC300EFFB120C9F8A0C8B0DA80CA90DE8496031
:102CD3003E88828983E065087004A3E06509602F5C
:102CE30088828983A3A3A3A3E0C39405502112542C
:102CF300798518828519837401F0120BEA12547DC9
:102D0300EEFCEFFD7403120BEA122D19750A01A9EB
:102D13000A740D024B17122D20120C5D22AA82ABEE
:102D230083120C27851882851983AA82AB832274A8
:102D3300F6120440122D6E600FA3A3A3A3E014C3E5
:102D43009404500479018002790002363C74F6122F
:102D53000440122D6E600FA3A3A3A3E014C3940237
:102D6300500479018002790002363C120C998A8260
:102D73008B83E58245832274F6120440122D6E6024
:102D83000BA3A3A3A3E070047901800279000236A8
:102D93003CC082C083EAFCEBFD7A007B0002356213
:102DA300C082C0837C007D0002356274F41204404B
:102DB30074F3120A28EAFEEBFF8C0A8D0BC3EC9422
:102DC300F8ED94FF4007EE4F7003022E677508007D
:102DD300750900802E8518828519837401F01231DC
:102DE300D2120BEA1231E060137403120BEAAC82C5
:102DF300AD83EEFAEFFB121D55E97049E508240196
:102E03001230009023C9E4125175E50898E5099939
:102E13005052E50875F012A4F8AAF075F012E5090E
:102E2300A42AF9125CBA60D4EE4F70A974FF650A44
:102E3300700474FF650B60C41231C2650A7004A389
:102E4300E0650B70B7E50875F012A4F508A8F075F6
:102E5300F012E509A428F509744B2508FA7409351D
:102E630009FB80047A007B000237D874F412044013
:102E730074F3120A28750800120C9F8A0A8B0BAE92
:102E83000AAF0BEE4F602A851882851983740112ED
:102E930035A2F8A3E0F9740B120BEA1236B6120C42
:102EA3003F7C127D0079FFEEFAEFFB12158D75085A
:102EB30001122C795009900ED37401F012101DA940
:102EC300080237D874F7120440E9FE74FE6A7003EF
:102ED30074FF6B7800790070058052122B4B122F10
:102EE30054504AE8FCE9FDEC75F012A4FCAFF07510
:102EF300F012EDA42F122F60F460E0E8FCE9FDEC82
:102F030075F012A4FC75F012EDA42FFD744B2CF593
:102F13008274093DF583E06A7003A3E06B70BC80A3
:102F230009122F6414C394044017122B4B122B3F26
:102F33005018EE70EC122F6464016005E0640370B6
:102F4300E91231B3FAA3E0FB80047AFE7BFF02357A
:102F53009D9023C9124069C3E89CE99D221230B4B5
:102F630022E8FAE9FBEA75F012A4FAACF075F01264
:102F7300EBA42CFB744F2AF58274093BF583E02202
:102F8300120CB1023565C082C083790180F274F0FE
:102F93001204408A0A8B0B7A047901120C6F8A0C93
:102FA3008B0DEA450D603EEAC333FAEB33FB121691
:102FB300238A088B09AE08AF09EE4F60237AFE7BA4
:102FC300FF120CB774FE6A700374FF6B601B8508F5
:102FD300828509831235ADE508240212300080E1B1
:102FE300750C0080047E007F00850A82850B83E5D3
:102FF3000CF0EEFAEFFB02401EE5082407F508E5A6
:10300300093400F509229023C9124069C3EA9CEBF5
:103013009D22E493FA740193FB2212158174032217
:103023001255DCE4F09080A122E88E828F83A3A363
:10303300A3A3A3A3A3A312304E740112304EA3F093
:10304300EE24101255DFE4F0A3F022123A1FA3A3DB
:10305300A322C082C0837A007B0080041912307FD0
:10306300123009501012309EC3940550F0E970ECF1
:1030730012308880047A007B00023565EA24010A55
:10308300EB3400FB22EA75F012A4FA75F012EBA4FC
:1030930028FB744B2AFA74093BFB22EAFCEBFDEC98
:1030A30075F012A4FCA8F075F012EDA4281230B448
:1030B30022FD744F2CF58274093DF583E02274F7E9
:1030C30012044074F3120A287E007F00023166E581
:1030D3000875F017A4F8A9F0125F1BFAA3E0FBEE42
:1030E300F8EFF9E875F012A4F8ACF075F012E9A462
:1030F3002C1231C16A7003A3E06B603FE50875F0E1
:1031030017A4F8AAF0EA125F1AF8A3E0F9740112FF
:103113000BEAE0687003A3E0696020E50875F01727
:10312300A4F8EAF974C728FC740A39FD7403120B76
:10313300EAAA82AB83121D55E96014E50875F017FE
:10314300A4F8A9F074C528FA740A39FB12114F05C3
:10315300089023DCE493F8E508C39850030230D2C7
:103163001231AA9023C91262615039EEF8EFF912B5
:1031730031B3F47003A3E0F460E685188285198304
:103183007401F0EEF8EFF9E875F012A4F875F01297
:10319300E9A42AF91231D2120BEA1231E060C175A7
:1031A300080080AD023598EE24010EEF3400FF22B3
:1031B300E875F012A4F8AAF075F012E9A42AF9123E
:1031C30031C622744B28F582740939F583E02274E1
:1031D3004D28F58274093912400D740B22E8F0A3CF
:1031E300E91236BE120C57E922C082C08390033D18
:1031F300740FF0A3740FF090033F7409F0A3740FDE
:10320300F09003437429F0A3740DF002356574F74D
:10321300120440EAFEEBFF900377E06408601BE0D2
:10322300640460168E828F83E05403640170481235
:10323300356C123B14E06406703D8E828F83A3A32A
:10324300E064FE7003A3E0F4602D8E828F83A3A35A
:10325300123627900368E0687003A3E069700BEEF1
:103263002415F582EF125CA16008120FBDE9F50881
:103273008008120FC380F67508C2EEFAEFFB121630
:103283002902271574F41204408A088B098A828B59
:1032930083E0F8A3E0FAE82AFAE43400FB121623E9
:1032A3008A0A8B0BAE0AAF0BEE4F606385088285EB
:1032B3000983E0FC7D00790012158D8E828F83A334
:1032C300A31265D6120FFF8E828F83A3A3A3A3122B
:1032D30035AD850882850983E0F8EE28F8EF3400E0
:1032E30012362F850882850983A3E0C0E0EE240D02
:1032F3001255CED0E0F0121011EE240E1255CEE985
:10330300124C80E0C0E0EE24111255CED0E0F0EE76
:10331300FAEFFB0237DD74F612044074EB120A284D
:10332300EAFEEBFF1248A260030233BD7A077B007B
:103333001216239003391235AD1248A260788E829B
:103343008F83120BC790033A123B17120BD31264ED
:103353009AC0E01233C9D0E0F0EE2405FAEF34004E
:10336300FB8A088B098A82F583E0C0E01233C4D05C
:10337300E01237D4E0C0E01233C4A3D0E012361910
:10338300120BC7851882851983120BD38882898310
:10339300E0C0E07405120BEAD0E0F08508828509ED
:1033A30083E0C0E07404120BEAD0E0F07407120B60
:1033B300EA1234FF8006791080027901741502360F
:1033C300391233C9A322900339E0FAA3E0F5838AC3
:1033D30082A3A3A3A322C082C0831248A2600D903C
:1033E30003391251AC900339E4F0A3F0120F2D12FC
:1033F30010EF02356574F012044074EB120A28ECE6
:10340300FEEDFF89087425120BEA780C120B8D74FC
:1034130029120BEAE0F9742A120BEAE0FC742B126E
:103423000BEAE0FD740F697005740F6C6012900F66
:1034330018E06402700579C10234FAE9C39C40F6CE
:10344300900378780C120BABE50890037EF0E990BB
:10345300037CF0ECA3F0ED90037FF074FF6A70033C
:1034630074FF6B701D900F23E0F47003A3E0F470FE
:1034730005121F6B800C900F23123582E8F0A3E92D
:103483008007900375EAF0A3EBF0EE4F6017EEFAB6
:10349300EFFB1211AFE96401700BEEFCEFFD7A89CB
:1034A3007B03121D5B900368E4F0A3F090036BF0C1
:1034B300A3F0900388F0900F18E064027008900363
:1034C3007C740FF0A3F09003777405F014120BEAE9
:1034D300E4F0900378120BC7851882851983120BC9
:1034E300D390037EE0C0E07405120BEAD0E0F074E1
:1034F30007120BEA1234FF741502401BE41236BEA6
:10350300121E3F22C082C083900338E0700312185A
:10351300B7120CF9804CC082C083900338E0900E40
:10352300D27004E4F0802D7401F0900338E0F4606D
:10353300237C41E0C394415002E0FCECF8E0C398E3
:10354300F0EC75F0E8A4CCA8F075F003A428FD7A9C
:10355300801240717AD27B0E7941121E2D800312A4
:103563000CA5D083D082020930EE1255DD22E0F59E
:1035730008A3E0F5092212357D22122955A3221250
:10358300400F9003752274F7120440EB90037FF011
:10359300120F1B8005740D12097E7F0102070B12A7
:1035A30035A8A3E022123619A322EAF0A3EBF022F6
:1035B30074F712044074F8120A28EAFEEBFF79004C
:1035C300900377E06408704485188285198374FD3D
:1035D300F0A374FFF0120FF97402120BEA1235AD67
:1035E3007405120BEAE41235A8E0C0E07404120B70
:1035F300EAD0E0123614C0E07406120BEAD0E0F011
:103603007407120BEAE41236BA12103B740802353F
:103613009A123619E022F08E828F8322F085188267
:103623008519832212400F22E0F8A3E0F91255DC3A
:10363300E8F0A3E9F02212097E7F0202070BC082A1
:10364300C08390034974B9F0A3740DF09003EF7431
:1036530095F0A37410F090034D74EFF0A3740DF084
:1036630090034F74B9F0A3740DF090035174F5F007
:10367300A3740DF002356574F412044074F9120A50
:10368300288A088B098C0A8D0B8518828519837803
:1036930008120BAB7404120BEAE9F07405120BEA7F
:1036A300E4F07406120BEAE41236BA120CE1740762
:1036B3000237DAE8F0A3E91236BE2212361FAA82D5
:1036C300AB832274F41204408A088B098A828B83A9
:1036D3001255EAEE4F70030237D29003121248A537
:1036E30060158A828B83A3A3E0F9EEFAEFFB9003C4
:1036F30013123B17121FE88E828F83A3A3A3A3A3E6
:10370300A3A3A3A3E0640270748E828F83A3A3A3F5
:10371300A3A3A3E0540270030237A485088285099A
:1037230083A3A3E064E960798E828F83A3A3A3A319
:10373300A3A3A3A3A3A3E07014900F1BE0048E82A2
:103743008F83A3A3A3A3A3A3A3A3A3A3F08E828F77
:1037530083A3A3A3A3A3A3A3A3A3A3E0141237D474
:10376300A3A3A37404F0900F1C125025E8F0A3E95F
:103773001260FE8B0BEA450B7003125ADC8E828FAC
:1037830083A3A3A3A3A3A3A3A3A3E0640260128EB2
:10379300828F83A3A3A3A3A3A3A3A3A3E06406701D
:1037A3002E8E828F83A3A3A3A3A3A3E0A2E0501F23
:1037B300850882850983A3A3E0F9EEFAEFFB121EC5
:1037C300C98E828F83A3A3A3A3A3A3E054FEF08097
:1037D30009123A1B22740D12097E7F0402070B742F
:1037E300EC12044074DD120A28EAFEEBFF8C088D0C
:1037F300097437120BEA780C120B8D750A007405E5
:10380300120BEAAC82AD83121F297412120BEAE089
:1038130070087415120BEAE060207405120BEAE0DD
:10382300A2E6501E8E828F83A3A3A3A3A3A3A3A365
:10383300A3124D1F121071E960087903121D430290
:103843003A017405120BEAE0540C64047005750B1D
:10385300018003750B00E0A2E55035750A01E50B05
:10386300A2E0402C120FFF8A108B11A810A911128D
:10387300356CE0687003A3E06960157405120BEA08
:103883001265DD124D1B121ED5E96004790480AC6C
:103893007405120BEAE0A2E650227406120BEAE06A
:1038A300540370187405120BEAE0540C640C600C9A
:1038B300E0540C64086005751001800375100074F2
:1038C30005120BEAE05403F8740268700C1265DD0C
:1038D300124D1B121F17023A01740168703AE5106A
:1038E300A2E05003123A097405120BEAA882A983D5
:1038F3007403120BEAE8F0A3E912400385188285EA
:103903001983123A13E0C0E07402120BEAD0E012FA
:1039130036BA121FB9023A01E86003023A01900372
:103923005FE0640170108E828F83A3A3A3A3A3A37C
:10393300E0700302388F7422120BEA740212400300
:10394300741A120BEA123633E510A2E0500874051C
:10395300120BEA123A09E50BA2E0506AEE240FF5C6
:1039630082EF125CA1C0E07417120BEAD0E0F09072
:1039730003141248A57003023A01120FFF8A128B37
:1039830013A812A913741A120BEAE0687003A3E0D8
:1039930069706B780C120948780A12095478081276
:1039A3000950A910740C120BEAAC82AD8374211276
:1039B3000BEAAA82AB83900314123B14121FE87420
:1039C3000712097E8038780C120948780A120954C4
:1039D30078081209509003751207DBEE2412F58262
:1039E300EF1259CF7423120BEAAC82AD83740E121B
:1039F3000BEAAA82AB83121EBD740912097E7423DB
:103A030012097E0260C91265DD1251BA121F232208
:103A1300E8F0A3E9123A1B22123A1F22F08E828F9A
:103A230083A3A3A3A3A3A32274F71204401217A38F
:103A330002359D74F71204401217A902359D74F7DD
:103A43001204401217B502359DC082C0831217AF0E
:103A530002356574F71204401217BB02359D74F7E3
:103A63001204407409120BEAE0F5087808120954AD
:103A73001217C7740102359AC082C0831217D3028A
:103A83003565C082C0831217D902356574F71204F5
:103A9300401217DF02359D74F7120440EAFEEBFF74
:103AA30089087401650870147900120E319023E7B8
:103AB300E493FC7900EEFAEFFB120DA702359D7437
:103AC300F412044074F9120A28E9FE8A088B098C5F
:103AD3000A8D0B7413120BEA124D1F9005C4124882
:103AE300A56027EE851882851983F07401120BEA0D
:103AF3007808120BABEAF8EBF97405120BEA1236ED
:103B0300B69005C4123B14121FE80236B1FB9003B2
:103B13004BE0F8A3E0F583888222C082C0831218A9
:103B23000F02356574F7120440900ED5E0F97E005C
:103B3300800B125C8D540D64017001190E123D212E
:103B43005003E970ED02359D74F7120440900ED6D0
:103B5300E0F97E00800B125C8D548D648170011935
:103B63000E123D215003E970ED02359D74F21204EB
:103B730040890BE975F006A4240CF508E5F0123032
:103B8300048A0CE508250CFAE5093400FB12162318
:103B93008A0C8B0DAE0CAF0DEE4F6027AC08AD0950
:103BA300790012158D12356CE50BF0EE2508F8EF50
:103BB3003509F98E828F83A3A3A3A3A3A3A3A3A3EE
:103BC300123633EEFAEFFB024B1A74F6120440EA94
:103BD300FEEBFF120D83900ED4E0F8E9C398400981
:103BE300900345124D1F120D89EE2402F8EF125374
:103BF3002F9003471251E9900347E004F0EEFAEFE8
:103C0300FB120D8F850882850983E00257E5C08288
:103C1300C0837900900345800109124D1F8A828B6E
:103C230083E582458370F202356574F7120440EA36
:103C3300FEEBFFEE4F60569003451248A5604E8899
:103C43008289837A007B00EE65827003EF6583606F
:103C53000FAA82AB83123C93E5824583602F80E7F2
:103C6300900345123C9F687002EF698E828F8370C8
:103C73000812362790034580031260DB123633EEB9
:103C8300FAEFFB121F89EEFAEFFB12162902359D9C
:103C9300123C9722124013888289832212400FEE2E
:103CA30022C082C08390034580048882898312489E
:103CB300A5600B88828983124357EC4D70EC8A828E
:103CC3008B83E4F0A3F0E84960068882898380034C
:103CD3009003451235AD02356574F7120440900325
:103CE3004580048A828B83123D1C4B60257E0080B5
:103CF300010E123D2150ECEE75F006A4FCADF0EA86
:103D03002CFCEB3DFDEC2410F582ED123D7170E1CE
:103D130080047A007B0002359D1251BEEA22123DD7
:103D23007AEEC3982274F71204407D0080010D12CD
:103D33003D76EDC3985034ED75F006A4FEA8F0E887
:103D4300FFEA2EFEEB3FFFEE2410F582EF123D71EA
:103D530070DCED75F006A4FEE8FFEA2EFAEB3FFBFC
:103D6300EA2411F582EB125CA14CF002359D125C42
:103D7300AD6922123D7A221265E7EB3400F583E048
:103D8300F82274F6120440120EA97A007B008025F3
:103D9300EAF8EBF9E875F006A4F8ACF075F006E97B
:103DA300A42C1251931264A8A3E4125289F0A31213
:103DB30064AE1266259023D1122C8340D37A007B04
:103DC30000801C8A088B0974037808120B03124CB9
:103DD30047A374FEF0A304125069A3E4126625906E
:103DE30023DB123E2440DC7A007B00801D8A088B93
:103DF3000974037808120B0374ED125919740D1228
:103E0300616074FEF0A3041266259023E1123E2440
:103E130040DB9023E5E493900353F0123E2E0236E9
:103E23003CE493F8C3EA98EB9400227CE87D037AA0
:103E3300107B009003C2E0F91216DD2274F0120425
:103E43004074F5120A288A088B09890A8C0BE9A2A7
:103E5300E050147508FC7509FFA2E15005D2E40295
:103E63003F01D2E3023F01124B067003A3E06970E6
:103E7300057900023FCEAC0A7902AA08AB09120EFB
:103E830085E960EDE50AF50C780C12095479027C9A
:103E9300FE7DFFAA08AB0912488112097EE960037F
:103EA300023FCCE50AC2E5F50A9003B5E07051E59F
:103EB3000AA2E6404B7403120BEAAC82AD83AA0854
:103EC300AB09120C33E970321241A28A0C8B0DA894
:103ED3000CA90DE8FEE9FFE8496025EE24020A0A71
:103EE300EF122993601AEE2402FCEF3400FD7403F1
:103EF300120BEAAA82AB83121D5BE50AD2E5F50A2F
:103F0300900348E0F50C900368E0F50EA3E0F50F8D
:103F1300780E1209507D017C00900348E0F9AA0E47
:103F2300AB0F120E3D740212097EE9F8900348E0CC
:103F330004F0E86003023FCCE50AA2E55004740EE6
:103F430080027406C0E07401120BEAD0E01255FB44
:103F53008A0E8B0FAE0EAF0FEE4F6069123FEC125D
:103F63004003888289837401F07478550AA312652B
:103F7300EDE50C1265EDA3E508F0E509123FDBE47E
:103F8300F0E50AA2E5500F7403120BEAAC82AD838D
:103F9300E82406123FD28E828F83A3A374FDF0A37D
:103FA30074FFF0E50B60159023E8E493F8E50BC389
:103FB300985009EE24131255CEE50BF0EEFAEFFB01
:103FC300120CD580067910800279C7740B8049FAE8
:103FD300E93400FB121D5B2288828983A3A3A3A378
:103FE300123FE722125362A322EE24171255DF7405
:103FF30001F0120FF9EE241A1255DFEAF0A3EB22B7
:10400300F01265E1340012400D22F58312401322B1
:10401300E0F8A3E0F922740D12097E7F0802070B72
:1040230074F61204407A007B10125AE96008900378
:10403300D47401F08029900665E06401900F197033
:1040430006E0FC79018004E0FC79037A007B00122E
:104053000DA79023CF1240657A007B1012407302A4
:10406300363C12406922E493FC740193FD227B00E9
:104073009003C2E0F91216D72274EC1204408A08A6
:104083008B098C0C8D0D890E7414120BEA124A6085
:104093007416120BEAE0F510A3E0F511121071E9A2
:1040A30060077AFF7BFF02419F900F18E064026074
:1040B300030241927900AA08AB09120E8BA90E12D2
:1040C3000E7F8A128B13AE12AF13EE4F70030241B1
:1040D3007A8E828F83A3A3A3A3A3E064018E828F2E
:1040E30083A3A37069124D1F8E828F83A3A3A3A3FF
:1040F300A3A3E0541860439023E6E4938E828F8356
:10410300A3A3A3A3F0EA650C7003EB650D6014EAA7
:10411300650A7003EB650B600AEA65107003EB65D3
:1041230011701F7810120950AC0AAD0BAA0CAB0D1D
:1041330012116D740212097E8008900367125AD31C
:10414300A3F074FE6A700374FF6B601D804EA3A31B
:10415300A3E0640360298E828F83A3A3A3A3A3E0B8
:10416300640470057AFE0240A78E828F83A3A3A303
:10417300A3A3E0640270089003B4E0640270101219
:1041830041A28B0BEA450B6006AA08AB09800DAA76
:1041930008AB09900349123B14121FE80260C9904F
:1041A30003751248871211312274F7120440EAFE94
:1041B300EBFF120C87E9700AEEFAEFFB120C93E99E
:1041C3006006EEFAEFFB80047AFE7BFF02359D74F6
:1041D300F01204408A0A8B0B8C0E8D0F8909750827
:1041E30000121071E979006003024349AA0AAB0B7C
:1041F300120E8BA909120E7F8A0C8B0DAE0CAF0D1C
:10420300EE4F60198E828F83A3A3A3A3A3E064025E
:1042130070559003B4E064027003024347AA0AABEB
:104223000B90034F123B14121FE8120C998A0C8B4C
:104233000DA80CA90DE849700302434788828983BE
:10424300A3A3A3A3A3E0A2E04003024347750C0189
:10425300A2E150687901AC0AAD0BAA0EAB0F120DA7
:10426300D7E970640243478E828F83A3A3A3A3A3DA
:10427300E064037005750C0280528E828F83A3A3C2
:10428300A3A3A3E0640160030243479003751243B1
:10429300578E828F831246AC8A0C8B0DA80CA90D06
:1042A300E84960D19023DFE493FA88828983E0C3ED
:1042B3009A50C2A3E0600302434780B9888289838E
:1042C300A3A3A3A3A3D2E1F0EE4F603A8E828F8320
:1042D300A3A3A3A3A3A3E05418602B7508018E82A4
:1042E3008F83A3A31207DB750CFE750DFF780C12E9
:1042F30009507900AC0AAD0BAA0EAB0F120E9D74D8
:104303000412097E803E900368E0650E7004A3E00A
:10431300650F70149023E7E493FCA909AA0AAB0B79
:10432300120DA7750801801CA90CAC0AAD0BAA0ECF
:10433300AB0F120DD7E9700C750801A909AA0AABD6
:104343000B120E31A90802401EE50C2415F582E577
:104353000D1255E212503F2274EA12044074F01217
:104363000A288A0C8B0D8C088D097426120BEAE03F
:10437300F514A3E0F5157512069003F51248A56030
:1043830023900375124357AA08AB0912115B8A10D5
:104393008B11EA4511600D8A828B83A3E070057946
:1043A30000024694E50C241DF50EE50D3400F50FCF
:1043B300850E82124891F51388828983A3A3A3E013
:1043C300FA88828983A3A3A3A3E0F9EA2400FEE485
:1043D30039FFAA08AB09120E37850E82850F8312A7
:1043E30046CFE029F50BE50AA2E5500375120E74DA
:1043F30087550A70177418550A6418600FE50C2462
:1044030017F582E50D125CA1651260077901121D93
:1044130043808C530A78C3EE94F8EF94FF501D79D0
:1044230000EEFAEFFB12469E601288828983A3A3F3
:10443300A3A3A3A3E0541860030243A278081209BC
:10444300507D001246C212097EE9F87403687003B6
:104453000243A2E8600302450D7418550A70030273
:1044630045C2E50AD2E0F50AA2E45004D2E1F50A16
:10447300A90A124D1812469E605388828983A3A30A
:10448300A3A3A3A3E05418604488828983A3A3A3AE
:10449300A3A3E064017036E5104511603090037505
:1044A300124357888289831246AC8A0E8B0FA80E5B
:1044B300A90FE849601788828983A3E0600F8510FC
:1044C30082851183A31257F050030243A2E50AF534
:1044D3000E780E1209541246B512097EE9702B7C30
:1044E300007D0085148285158374FFF0A3F0850C8D
:1044F30082850D83A3A3A3A3A3A3A3A3E0600312B5
:10450300434CA90B124D181217CD851482851583C0
:10451300E0F47003A3E0F460399003B4E064027044
:10452300030243A2124A51E0FAA3E0123B10121F06
:10453300E8EA65087003EB650960030243A2EEFA3B
:10454300EF123B10121FE8851482851583EAF0A34E
:10455300EBF078081209507D011246C212097EA9B8
:104563000AEEFAEFFB120E8B8A088B09A808A90939
:10457300900368E0687003A3E0696003024685EE78
:10458300FAEFFB120C998A088B09A808A909E849D4
:10459300606E88828983A3A3A3A3E06401600D886E
:1045A300828983A3A3A3A3E0640270548518828540
:1045B3001983AC82AD83EEFAEFFB120C3380559076
:1045C3000361E0600FE50AF50E780E1209541246F6
:1045D300B512097EE50AF50E780E12095479027CAC
:1045E300FE7DFFEEFAEFFB12488112097EE96003BC
:1045F30002450D85148285158374FFF0A30245548B
:10460300120FF9EAFCEBFD851882851983AA82ABA8
:1046130083121D5B850C82850D83A3A3A3A3A3A390
:10462300A3A3E06401700F12434C7408120BEAAAAF
:1046330082AB83121D5B12485B1254674430F5084A
:1046430078081209547401120BEA858208858309DC
:104653007808120950740B120BEA858208858309C6
:104663007808120950E513F50878081209547900FF
:10467300EEFCEFFD124D18120DD1740612097E02E5
:1046830043A212485B1255D11246CFE50BF012102C
:1046930011741012097E7F0E02070B120E7F8A0E11
:1046A3008B0FA80EA90FE84922A3A31251BE121122
:1046B3005B227901AC08AD091251B312488122ACD7
:1046C3000BA9131251B3120E3D74022212546FA39D
:1046D300A3A3A32274F012044074F0120A288A0CD4
:1046E3008B0DECFAEDFB750F089003F51248A560EE
:1046F300141257E98A828B83E58245836007A3E01E
:10470300700302485612485B3400124891F50B8837
:10471300828983124864E0FBEC2400FEE43BFF88BB
:10472300828983A3A3124864A3A3E0FBECF508E406
:104733003BF50988828983A3A3A3A3A3A3A3E0F5DD
:104743000EE50AA2E45003750F10A2E550067408A3
:10475300250FF50F748F550A700FE50C2417F5829A
:10476300E50D125CA1650F60087901121D43024833
:1047730056530A707800E50AA2E4502212485B12ED
:104783005CA12408FCA3E03400FD7408120BEAAA20
:1047930082AB83121D5B7808E50AC2E4F50AE50AD9
:1047A300A2E5502812485B125CA128F8A3E034006C
:1047B300F9E82408FCE93400FD851882851983AAE9
:1047C30082AB83121D5BE50AC2E5F50AAC0EA90BA9
:1047D300EEFAEFFB120E43E9F87403686075900379
:1047E30068E06E7003A3E06F605EE87054E50AF55D
:1047F3000F780F12095412487212097EE970547827
:104803000A1209547401120BEA85820C85830D7810
:104813000C120950740B120BEA85820C85830D78F8
:104823000C120950E50BF50A780A120954A90EACCB
:1048330008AD09EEFAEFFB120DD1740612097E8062
:1048430012740468700D80B7780A12095412487202
:1048530012097E741002401BE50C241DF582E50D40
:1048630022A3A3A3E0FC88828983A3A3A3A3227921
:1048730001124A581255E212488712488122120D3A
:10488300FB740122E0FCA3E0FDAA08AB0922F58337
:10489300123C97A3E0F50A88828983A3A3E02290C0
:1048A300033912521A2274E812044074F5120A28CA
:1048B300EAFEEBFF8C088D0989147423120BEAE0DE
:1048C300F50F7424120BEAE0F512A3E0F513742636
:1048D300120BEAE0F516A3E0F5177428120BEAE0D1
:1048E300F50EA90F120E498A108B117401120BEAEF
:1048F3007408F0E50EA2E450037410F0E50EA2E58F
:104903005004E02408F0851882851983AA82AB83BA
:104913001210598A0C8B0DEA450D7003024A38EACE
:104923002417F582EB124A4A120FF9E50C241AF503
:1049330082E50D1255D11235AD7403120BEAAC8228
:10494300AD83AA10AB11120C33E9601D124A4274F5
:1049530003120BEAA882A983E50C2418F582E50D5E
:104963001255D1E8F0A3E98024E50EA2E4501FE537
:10497300106E7003E5116F7015124A42E50C24188E
:10498300F582E50D1255D1E512F0A3E513F0124AB5
:1049930051124A60850A82F5837402F0A3E50E1270
:1049A3004A68E50FF0EE850A82850B83A3A3A3F083
:1049B300EF850A82850B83A3A3A3A3124A68A3A34B
:1049C300A3E508F0E509850A82850B83A3A3A3A3C6
:1049D300A3A3F0AA10AB11120E37E92514850A829E
:1049E300850B83A3A3A3A3A3A3A3F0750800E50EDC
:1049F300A2E45011AC12AD13E50A2408FAE50B1238
:104A03003FD4750808E50EA2E55014AC16AD17E5C2
:104A13000A2508F8E50B3400F9E82408123FD2858B
:104A23000C82850D83A3A3E510F0A3E511F0AA0C76
:104A3300AB0D120CD5740B12097E7F1002070BE528
:104A43000C2416F582E50D1255E27401F022124A88
:104A5300581255E222E50C1265E8E50D22E0F50A4D
:104A6300A3E0F50B22F0850A82850B83A3A32274AE
:104A7300F21204408A088B09ECFEEDFF890A7900E3
:104A8300124B067003A3E069700479018073750B00
:104A930001900368E065087004A3E06509601F7571
:104AA3000B00780B120954A90AEEFCEFFDAA08AB20
:104AB300091210AD740112097EE9F50B80417900EA
:104AC300EEFAEFFB120E7FEA4B602B8A828B83A3F5
:104AD300A3A3A3A3A3E05418601C7508FE7509FFE4
:104AE30078081209508A828B83A3A31207DB12630F
:104AF300FD12097E80097901EEFAEFFB120D59A927
:104B03000B8014120E8B8A0C8B0DA80CA90D90032D
:104B130068E0682212097E7F0602070B74F4120410
:104B23004075083575090C7A101261058B0BEA453F
:104B33000B7003123E2E900353E014F0700C90237D
:104B4300E5E493900353F0120E977E007F00806C90
:104B5300850882850983A3A3A3A3E06059F4605663
:104B6300E5082404F582E509125ACD7049850882C7
:104B7300850983A3A3A3A3A3E06403701979028522
:104B83000882850983124357850882850983A3A375
:104B9300124D1F120DD7850882850983A3A3A3A3F2
:104BA300A3E06401601085088285098374FEF0A385
:104BB30004124C79E4F01231AA122FFC9023D31281
:104BC3006261408C7E007F008039120F9F8E088FB8
:104BD3000974037808120B0374AD2508FC740D35B2
:104BE30009FD7AE37B0D120F8DEA4B70DD8E088F82
:104BF3000974037808120B03124C471264A8E4F0FB
:104C03001231AA9023DBE493F8C3EE98EF9400509B
:104C13001B8E088F0974037808120B03124C4FE89C
:104C23002407F582E9125ACD70D680A17E007F0059
:104C3300800A124C5A600214F01231AA12625E40CA
:104C4300F10237DD124C4F888289832274AD250827
:104C5300F8740D3509F922EEF8EFF9E875F006A4BA
:104C6300F8AAF075F006E9A42AF9744D28F58274C0
:104C73000D39F583E022124C80A3A3A322F085080B
:104C830082850983A3A32274F712044074E1120AF4
:104C930028ECFEEDFF750800EE4F60728A828B836D
:104CA300E0241C125AFE1248A560638A828B831289
:104CB3004D1F851882851983AC82AD83EA241BF5C9
:104CC30082EB1259CFEA241CF582EB124D1B120F13
:104CD300E1740B120BEA124D237003A3E069702EEB
:104CE3007402120BEAE064017024741D120BEA12C1
:104CF3003B14E064017017741D120BEA123B16A3F8
:104D0300A3E0F88E828F83E0687003750801A90819
:104D1300741F02359A124A583400F5831251BE2289
:104D2300122951E0682274F4120440E970247900D6
:104D330090034D123B14121FE88A0A8B0BAE0AAF85
:104D43000B74FE6E700374FF6F701A9023E2E4938A
:104D53006013790190034D123B14121FE88A0A8BEA
:104D63000BAE0AAF0B12101D02331274F61204407D
:104D730074F3120A28121F6B8A088B09AE08AF0955
:104D8300900368E06E7003A3E06F60E9121005EA18
:104D93006E7002EB6F60DEEEFAEFFB121071E970DA
:104DA300D4EE4F60D0851882851983E4F004120B8A
:104DB300EAEEF0A3EF124DD1E970BA74FE6E700300
:104DC30074FF6F60B0EEFAEFFB740D0236391236E2
:104DD300BE120C4B22C082C08312101D0235657FA8
:104DE3000A02070B74F2120440EAFEEBFF8C0A8DF1
:104DF3000B8908740E120BEAE0F50974FC6E70035C
:104E030074FF6F70057900024B1A7900120E8B8ABA
:104E13000C8B0DAE0CAF0D900368E06E7003A3E036
:104E23006F7006E509A2E650DCA9091262EB706116
:104E330079007AFE7BFF1262EB7056741855097085
:104E430003024F1E780079008003122B4B9023D36B
:104E5300122B424003024F1EE8FAE9FBEA75F00702
:104E6300A4FAACF075F007EBA42CFB743B2AF58293
:104E7300740C3BF583E0541870D0E875F007A4F880
:104E8300AAF075F007E9A42AF9743528F8740C39E7
:104E9300F988828983A3A3A3A3A3A3E05418600979
:104EA300741855097003024E0888828983EEF0A3B3
:104EB300EFF074FE650A700474FF650B6003125013
:104EC3004588828983A3A3A3A3A3A3E509F0A2E052
:104ED300500D88828983A3A3A3A3A3A3D2E2F07472
:104EE30001650888828983A3A3A3A3A370387401EF
:104EF300125069E0541860289023E6E4938882896D
:104F030083A3A3A3A312503312115B8B0DEA450DA8
:104F13006003024E087800790080397902024E0A54
:104F2300900367E080D7E064017003024E08888233
:104F33008983A3A3A3A3A3A3E0541860079023E644
:104F4300E4938004900366E0123FDBE508F0024E31
:104F530008122B4B9023DCE493FAC3E89AE99400FC
:104F63004003024E087A007B00804BEAFCEBFDEC29
:104F730075F007A4FCAEF075F007EDA42EFD7437B1
:104F83002CF582740C3DF5831255EAE8FCE9FDEC3F
:104F930075F017A4FC85F00975F017EDA42509FD3C
:104FA30074C52CF582740A3DF583E06E7003A3E0AB
:104FB3006F609E12307F9023D312300C40AD1240AD
:104FC30065EC6A7002ED6B7088E875F017A4F8AAB7
:104FD300F075F017E9A42AF974C528FE740A39FF9D
:104FE3007C177D007900EEFAEFFB12158D8E828F10
:104FF3008312504B900375125025A3A3A3A3A3A31D
:10500300E8F0A3E912502B7401F0EE240E1255CEF2
:1050130074011250531202EFEE240D1255CEE80222
:105023004F5012357DA3A322F0EE240F1255DF2239
:10503300F012503CAA0AAB0B22900375E0FCA3E0EC
:10504300FD2288828983A3A3E50AF0A3E50BF0225E
:10505300F0125058229023DFE4932401F8E4340043
:10506300F97A027B0022123FE7A32274ED12044077
:105073008A088B09890E12519C4005790502516AF1
:10508300121815AA08AB0912526E9023D112516D52
:10509300650A7003E9650B70077AFE7BFF12526E97
:1050A3009023D1E4125175E50A98E50B9940030268
:1050B30051681251796012E50A75F006A4F875F08B
:1050C30006E50B1251C4121629E50E6018E50A75A0
:1050D300F006A4F8AAF075F006E50B1251F0701A69
:1050E300790102516AE50A75F006A4F8AAF075F091
:1050F30006E50B1251D1E4F0A3F0E50A75F006A41E
:10510300F8AAF075F006E50B125191A312547D88AD
:10511300828983A3AA82AB831251DF8A828B83E0C5
:10512300603F125179603A8E108F1175120078101A
:1051330012094CE50EC333FCE433FDE50A75F006B2
:10514300A4F50AA8F075F006E50BA428F50B745135
:10515300250AF582740D350B124D1D12301D1209EF
:105163007E790080027907026301122CA4E8229061
:1051730023C9125C8822E50A75F006A4F8AAF07523
:10518300F006E50B1251CCF8A3E0F9E84922A42A72
:1051930012532588828983A322ECFEEDFF9023DD41
:1051A300E493F8E9C39822F5831251BE121629221B
:1051B300E50C1265E8E50D3400F583E0FAA3E0FBA6
:1051C300221251CCFAA3E0FB221251D1E022A42AED
:1051D300F9745128F582740D39F58322E50EF090A8
:1051E3000F1A1251E922E088828983F0221253496F
:1051F300F50CE93400F50DE50EC333FAE433FB1285
:105203001623850C82850D83EAF0A3EBF0850C82CF
:10521300850D8312521A22124013E8492274F412A4
:105223000440ECFEEDFF740C120BEA1236278808DB
:10523300890912526EAC0AAD0BECF8EDF99023D14B
:105243001252765021E875F006A4F8AAF075F0061C
:10525300E9125191E08E828F8312528912527F128A
:1052630036337900800279040237DD120E0D8A0A83
:105273008B0B22123015C3EC9AED9B2212400F8543
:1052830008828509832212535E2274F61204407E3B
:10529300007F008028EEF8EFF9E875F006A4F8AC7B
:1052A300F075F006E9A42CF9744F28F582740D12F9
:1052B3005F0C6A7003A3E06B60571231AA12625E3F
:1052C30040D31262597002E96F704674FE6A70032C
:1052D30074FF6B703C7E007F0080031231AA126260
:1052E3005E502E124C5A70F3EEF8EFF9E875F006A3
:1052F300A4F812531B1253506017125337F8E912D4
:10530300532F88821251AA850882850983E4F0A36A
:10531300F0EEFAEFFB02363C75F006E91253232256
:10532300A42AF9744D28F8740D39F9223400F98848
:1053330008890922EEF8EFF9E875F006A4F875F08C
:1053430006E912534922125323E8240422A3A37427
:10535300FE12535B12521A22F0A30412536222F07C
:1053630088828983A3A3A3A32274F6120440EA24A8
:105373001DF582EB125467F9604BEA241DF582EBAD
:10538300125CA12402FCA3E03400FD1251A04003EF
:1053930002545A780080298C828D83E0F508A3E0BB
:1053A300FFE5082400E43FF509E833FEE433FF7426
:1053B300952EF582740D3FF58312547D12545D08CA
:1053C300E8C39940D28A828B83A3A3A3A3A3A3A3F5
:1053D300A3A3124357900368E06C7003A3E06D70BE
:1053E3000F7C957D0D1228BA124D1B120E0180679A
:1053F300EA2411F582EB125CA1605CFC74FF2CF0D3
:10540300750801780812095475089575090D78080F
:10541300120950E9F5087808120954EA2412F582B2
:10542300EB125CA1F5087808120954EA2415F582F9
:10543300EB1255D11207DBECF91228BA1243548A46
:10544300828B83A3A3A3A3A3A3A3A3A3124D1F127E
:105453000E19740712097E02363CEC24020C0CED83
:105463003400FD221255E212546FE022E0F8A3E06B
:10547300F5838882A32288828983E508F0A3E5095E
:10548300F02274EA12044074FD120A288A148B1560
:105493008C0E8D0F890D7419120BEA1255EA741BC9
:1054A300120BEAE0F511741C120BEAE0F50C741D03
:1054B300120BEA124A60741F120BEAE0F51060083F
:1054C300E50CC333240480027402C0E07401120BA0
:1054D300EAD0E01255FB8A088B09EA4509700302FA
:1054E30055C68A828B83A3A3E514F0A3E515126046
:1054F300F4E50EF0A3E50FF0EA2413F582EB125561
:10550300D1E50DF0EA2414F582EB1255D1E511F043
:10551300EA2417F582EB125CA164017040120FFFBD
:105523008A0E8B0FA80EA90F850882850983A3A372
:10553300A3A3E0687003A3E0696022EE4F6011E566
:1055430008241AF582E5091255D1EEF0A3EF800C79
:10555300E5082417F582E5091255D1E4F01255D573
:105563001255EA8E828F837405F0A3E5107004E56B
:105573000C80487401250C1255F47A008028850AA2
:1055830082850B83E01255F0850A82850B83A3E0A5
:105593008E828F83F0E50A2402F50AE50B3400F5C9
:1055A3000BA30EAF830AEAC3950C40D2120FFFEA96
:1055B3001255F0120FFFEB8E828F83F0AA08AB090E
:1055C300120CD57403024696EE240CF582EF1255A5
:1055D300E2221228CB1255E222EE240BF582EF349D
:1055E30000F58322900334E0FEA3E0FF228E828F36
:1055F30083F0A3AE82AF83221236BE12105922C0AB
:1056030082C083E9C333FCE433FDEA2CFAEB3DFBB0
:10561300EA24FEF582EB34FF124D1D02356574F268
:1056230012044089098A0A12519C4004790080407F
:1056330075080080020508E508C39509502AE508A6
:10564300C333F8E433F9EE28F582EF39F583C082EA
:10565300C083120FFF8A0C8B0DD083D082E0650CC0
:105663007004A3E0650D70CDE50A650870BE79018D
:10567300024B1A74F012044074F3120A288A088B3E
:10568300098C0A8D0B890C750D00121071E97900D4
:105693006003025778AA08AB09120E8BA90C120EED
:1056A3007F8A0E8B0FAE0EAF0FEE4F70030257764D
:1056B3008E828F83A3A3A3A3A3A3E0A2E24003024A
:1056C3005776120FFFEA650A7003EB650B701178CA
:1056D3000D120954E4F50EF50F780E1209508044AB
:1056E300AA0AAB0B120C8DE96401706885188285D8
:1056F30019837404F07401120BEA12504B8518825B
:10570300851983AA82AB83120C4BE964017045753A
:105713000D01780D120954E4F50EF50F780E1209F8
:1057230050750D00780D120954780D120954740840
:10573300120BEA85820E85830F780E12095090238F
:10574300E8E493F9AC0AAD0BAA08AB09120E19747D
:105753000712097E8E828F83A3A3A3A3A3A3E0A230
:10576300E1400D8E828F83A3A3A3A3A3A3C2E2F080
:10577300750D01A90D02401974F6120440E9FE7972
:1057830000120E8BEEF9120E7F8A088B09A808A966
:1057930009E849600612662FF98002790402363C53
:1057A30074F61204407E0790035CE070341257E9EC
:1057B3008A088B09A808A909E8496025900361E0D4
:1057C300640188828983A3A3700B1257F0888289AE
:1057D300835001A3A3E0F9121179E9FEEE70027E72
:1057E30007EEF902363C12503C12115B22E0FA88B4
:1057F300828983A3E0C39A2274EE120440EAFEEB8B
:10580300FF890A8C0C8D0B7412120BEA123571127C
:1058130058C51251A35051890E750F007403780EA9
:10582300120B0374B3250EF582740D350FF583E067
:10583300F8E50CC398502DE50B6024751100740333
:105843007810120B0374AD2510F8740D3511F98817
:10585300828983A3A3A3A3A3A3E50C1258CFF07952
:1058630000024DE2790380F979007AFE7BFF12583A
:10587300C5E49365107004790280E6E50B60E08966
:105883000E750F007403780E120B0374AD250EF81A
:10589300740D350FF988828983A3EEF0A3EF1258B4
:1058A300CF125069E50C123FE374FF1264AEE50AB0
:1058B300F0900366E088828983A3A3A3A3A3A3A391
:1058C300809C120E79E9F5109023DB221265F1A377
:1058D300E508F0A3E5092274F6120440ECFF120E6A
:1058E300799023DB1251A3502789087509007403AB
:1058F3007808120B0374B2125919740D126160E027
:10590300F8EFC3985006EFF0790080067903800220
:10591300790402363CEA2508F5822274F412044025
:10592300EAFEEBFF120E79E9F50A9023DB1251A38D
:105933005019750B007403780A120B0374B0250A0F
:10594300F582740D350B124D1D801890034B1248D0
:10595300A5600CEEFAEFFB123B17121FE880047AE6
:10596300FE7BFF0237DD74F61204408A828B83A329
:10597300A3A3A3A3E4F0F88001089023E1E493F93F
:10598300E8C399501E88081259C78C828D83A3A33C
:10599300A3A3A3A3A3A3E06970DFECFAEDFB120FAB
:1059A300A5801EE4936870198C828D83A3A3A3A39F
:1059B300A3A3A3A3A37406F07A008C828D83125A47
:1059C300F202363C74352508F582740E125CADF98B
:1059D3002274F4120440EAFEEBFF8E828F83A3A3AA
:1059E300E014125B09A3E0F9120F818A088B09EA1C
:1059F30045097003025ACA8E828F83A3A3E07035D0
:105A03008A828B83A3A3A3A3A3A3A3A3A3E0640278
:105A13008A828B83A3A3A3A3A3A3A3A3A3601074CA
:105A230006F07AF08508828B83125AF2025ACA74FE
:105A330006F0025ACA8E828F83A3A3A3A3A3A3E073
:105A430060738E828F83A3A3A3A3E0607AEE240303
:105A5300F582EF125ACD706F900355125AD3125B31
:105A630009E0141260EBE06403705C8E828F83A301
:105A7300A3A3A3E0700DAC08AD09EEFAEFFB120E81
:105A83004F80448A828B83A3A3A3A3A3A3A3A3A32B
:105A93007404F0121F6BEA540F048508828509838E
:105AA300A3A3A3A3F0A3E4F07A20FB125AE970178F
:105AB300125ADC80128A828B83A3A3A3A3A3A3A37A
:105AC300A3A3E0640360AF0237DD125CAD14F022E0
:105AD300E08E828F83A3A3A3227A207B009003C24C
:105AE300E0F91215DB221261078B09EA450922E06E
:105AF300240C125AFEE0F9120EC722F8A3E0340078
:105B0300F98882898322125B0EA322123619A3A37A
:105B1300A32274F612044079007E0080258E087556
:105B2300090074037808120B0374ED2508FA740D49
:105B33003509FB8A828B83A3A3E06005120E557996
